:100200000C947F010C94A7010C94A7010C94A701F6
:100210000C94A7010C94A7010C94A7010C94A701BE
:100220000C94A7010C94A7010C94A7010C94A701AE
:100230000C94A7010C94A7010C94C92C0C947A2D52
:100240000C94A7010C94A7010C94A7010C94A7018E
:100250000C94A7010C94A7010C94A7010C94A7017E
:100260000C94A7010C94A7010C94A7010C94A7016E
:100270000C94A7010C94A7010C94A7010C94A7015E
:100280000C94A7010C94A7010C94A7010C94A7014E
:100290000C94F62B0C94802C0C945A2C0C94A701E3
:1002A00008000000BE922449123EABAAAA2ABECD85
:1002B000CCCC4C3E00000080BEABAAAAAA3E0000F7
:1002C0000000BF000000803F0000000000084178EF
:1002D000D3BB4387D1133D190E3CC3BD4282AD2B26
:1002E0003E68EC8276BED98FE1A93E4C80EFFFBE1E
:1002F00001C4FF7F3F0000000000562E3A2E11245B
:100300001FBECFEFCDBFDFE3DEBF18E2A0E0B8E253
:10031000EBE6F8E802C005900D92AE31B107D9F7CF
:100320002CE2AEE1B8E201C01D92AB34B207E1F7B6
:1003300011E0CEE7D1E004C02197FE010E94163CF7
:10034000CD37D107C9F70E941B300C9441410C9462
:100350000001CF93DF9390E0FC01E25AFC4320813F
:100360002F3F71F0FC01EB5CFC43A08130E2A39FC6
:10037000D0011124BC5F6130710529F411962C93D2
:10038000DF91CF910895845F9C43EC01E881EF3FBA
:1003900089F0CD014096E80FF92FF11D9FB7F89431
:1003A00012962C9380816230710539F488608083C5
:1003B0009FBFE6CFF0E0E0E0F1CF877FF8CF282FB6
:1003C00030E0F901ED51FD43E081EE2309F1E13028
:1003D00021F0F0F0E63098F008954091010A245F92
:1003E0003C43F90120812C5F81E090E001C0880F3F
:1003F0002A95EAF7809584238093010A089580E185
:10040000E89FF0011124E05AF54F81818F7E8183AE
:100410000895FF920F931F93CF93DF93082F10E05F
:10042000F801E25AFC43F0809FEFF916A1F0EB01CE
:10043000893210F40E94DF01F801EB5CFC43E0819B
:1004400080E2E89FF0011124FC5F80818F2159F048
:10045000CD2B39F4F682DF91CF911F910F91FF9050
:100460000895F582F8CFD801A45FBC438C913097F2
:1004700071F08F3F61F07096E80FF11D9FB7F8940F
:100480008081CD2B39F4877F80839FBFE4CFF0E05C
:10049000E0E0F4CF8860F8CF0F931F93CF93082F3D
:1004A00010E0F801E25AFC43C081CF3FB9F0893235
:1004B00010F40E94DF01F801EB5CFC43E08180E274
:1004C000E89FF0011124FC5F8085C82381E090E063
:1004D00009F480E0CF911F910F91089580E090E0A2
:1004E000F9CF893210F40C9409020895893210F47E
:1004F0000C94A90108958E508093060681E08093A4
:10050000080680910B0680FFFCCF2FB7F8948091EE
:100510001006909111062FBF0895CF93DF938FB7E8
:10052000F8942091BC293091BD294091BE29509169
:10053000BF29E091BA0A9091B60A90FF06C02F5FDA
:100540003F4F4F4F5F4FE091BA0A8FBFA091BA293A
:10055000B091BB29C091B829D091B9290E94F7392F
:10056000EC9F9001ED9F300D1124620F731F811DD0
:10057000911DDF91CF9108958F929F92AF92BF927C
:10058000CF92DF92EF92FF924B015C010E948D02AD
:100590006B017C01A8EEB3E0A50194010E94F7393C
:1005A000C60ED71EE81EF91EC616D706E806F906BF
:1005B00018F40E948D02F8CF0E948D026C157D0503
:1005C0008E059F05C8F3FF90EF90DF90CF90BF900E
:1005D000AF909F908F9008952FB7F8946091B429B1
:1005E0007091B5298091B6299091B7292FBF0895B0
:1005F00021E0FC0184858F3F09F420E0822F0895DB
:10060000DC01ED91FC910190F081E02D0994AF9215
:10061000BF92CF92DF92EF92FF920F931F93CF93EF
:10062000DF936C017B018B01040F151FEB015E0151
:10063000AE18BF08C017D10759F06991D601ED91E6
:10064000FC910190F081E02DC6010995892B79F785
:10065000C501DF91CF911F910F91FF90EF90DF9037
:10066000CF90BF90AF900895FC0154894589252F04
:1006700030E0842F90E0821B930B541710F0CF963C
:10068000089501970895FC0192898389981761F074
:10069000A389AE0FBF2FB11D59968C9193899F5F8F
:1006A0009F73938B90E008958FEF9FEF0895FC0167
:1006B00092898389981731F08389E80FF11D818D24
:1006C00090E008958FEF9FEF0895FC0192892389B0
:1006D000892F90E0805C9F4F821B91098F7399272F
:1006E0000895CF93DF93EC01E881F9810680F781CB
:1006F000E02D0995EC85FD8586818F738683EC85D9
:10070000FD8585818F7585838B898A8B198ADF9119
:10071000CF910895CF92DF92EF92FF920F931F93A4
:10072000CF93DF93EC016A017B01022F8989882333
:1007300039F0E881F9810288F389E02DCE0109952D
:1007400098898091E205892B8093E2051FB7F89480
:1007500060E070E281EA97E0A70196010E94B63955
:1007600069017A018FEFC81AD80AE80AF80AF694E4
:10077000E794D794C794EC85FD8586818D7F868329
:10078000EC85FD8586818683198AA09123110A2E26
:10079000000CBB0BA70196010E94023A20E034E056
:1007A00040E050E00E94D839EC85FD85C20ED31E92
:1007B000E41EF51EC086D186EC85FD850783EC8599
:1007C000FD858681806C8683EC85FD8585818068CA
:1007D00085838E8562E070E00E9476028F8561E0FD
:1007E00070E00E9471028F8561E070E00E947602E5
:1007F0001FBFDF91CF911F910F91FF90EF90DF907E
:10080000CF900895CF93DF93FC0194898589C485A7
:10081000D585981306C08D818F7D8D83DF91CF9113
:100820000895A589AE0FBF2FB11DA75ABF4F2C91B8
:10083000858990E001968F739927858B80E48C835E
:10084000A485B58512962C93948985899813E6CF53
:10085000A485B58515968C9115978F7D15968C93EB
:1008600087898823D9F2808D80931301178AD6CF88
:10087000DC011C96ED91FC910FB607FE03C02581AB
:1008800025FD04C0248125FD0C9402040895EF92F7
:10089000FF920F931F93CF93DF93EC0181E0898B3D
:1008A0009C898D8998131CC0AC85BD8514968C914C
:1008B000149785FF15C012966C93AC85BD8580E4B6
:1008C00014968C93EC85FD8585818F7D858381E0F1
:1008D00090E0DF91CF911F910F91FF90EF900895DD
:1008E0008091110180FF08C080911301888F8E894B
:1008F0008093130181E08F8BF62E0C8910E00F5F3F
:100900001F4F0F731127E02E8D898E1104C0CE0169
:100910000E943804F9CFEC89EC0FFD2FF11DE75A46
:10092000FF4FF0820C8BEC85FD8585818062CECFF8
:10093000CF93DF93FC0121892223C9F0EC01809140
:10094000110180FF08C080911301808F86898093F8
:10095000130181E0878BEC85FD85858185FD03C0D2
:10096000848186FD04C0CE010E943804F4CFDF915B
:10097000CF91089581E008950895EF92FF920F932B
:100980001F93CF93DF937C01EB018B01040F151FA5
:10099000C017D10759F0D701ED91FC910480F58182
:1009A000E02D6881C70109958993F2CFDF91CF913E
:1009B0001F910F91FF90EF9008950F931F93CF9386
:1009C000DF93EC018B018091C008E881F9810480FC
:1009D000F581E02D86FD13C0612FCE010995182FFA
:1009E000E881F9810480F581E02D602FCE01099521
:1009F000082FC801DF91CF911F910F910895CE016B
:100A00000995082FE881F9810480F581E02D612F97
:100A1000CE010995182FEDCF00006093C408809196
:100A2000C30887FFFCCF8091C40808958F929F92DE
:100A3000AF92BF92CF92DF92EF92FF920F931F93EC
:100A4000CF93DF93FC018085882319F081FF0EC0CE
:100A50007894DF91CF911F910F91FF90EF90DF90ED
:100A6000CF90BF90AF909F908F90089580FFF1CF6F
:100A700082849384A484B584C12CD12C760110E0A7
:100A80009401A501B601C701A0E00E944B3C99F179
:100A9000217030E040E050E060E070E080E090E005
:100AA0000E944B3CD9F0D0E0C0E0103370F4C12F6D
:100AB000C695C695C69580E2C89FE0011124C05F27
:100AC000DB4F812F8770C80FD11DCF01810F911D82
:100AD000DC0152968C919881892B88839401A50121
:100AE000B601C70101E00E941E3C49015A016B0199
:100AF0007C011F5FC5CF86849784A088B188C12CF4
:100B0000D12C760110E29401A501B601C701A0E045
:100B10000E944B3C09F49DCF217030E040E050E052
:100B200060E070E080E090E00E944B3CD9F0D0E0C3
:100B3000C0E0103370F4C12FC695C695C695B0E2DB
:100B4000CB9FE0011124C05FDB4F812F8770C80F5E
:100B5000D11DCF01810F911DDC0152968C9198819E
:100B6000892B88839401A501B601C70101E00E9489
:100B70001E3C49015A016B017C011F5FC4CFFC017F
:100B80006F3F710581F1808581FD2DC06032710557
:100B90005CF581E090E002C0880F991F6A95E2F74A
:100BA00080959095092E000CAA0BBB0B42855385AE
:100BB0006485758584239523A623B723828793872D
:100BC000A487B58782859385A485B585892B8A2BD3
:100BD0008B2B49F486859785A089B189892B8A2B2F
:100BE0008B2B09F4108608956052710981E090E022
:100BF00002C0880F991F6A95E2F780959095092E9B
:100C0000000CAA0BBB0B468557856089718984232C
:100C10009523A623B72386879787A08BB18BD2CF46
:100C2000FC016F3F7105E9F1603371051CF082E052
:100C30008087089580858160808760327105C4F463
:100C400081E090E002C0880F991F6A95E2F7092EB3
:100C5000000CAA0BBB0B4285538564857585842BDC
:100C6000952BA62BB72B82879387A487B5870895EA
:100C70006052710981E090E002C0880F991F6A9567
:100C8000E2F7092E000CAA0BBB0B4685578560893D
:100C90007189842B952BA62BB72B86879787A08BE2
:100CA000B18B0895E0ECF8E020812E7F2083FC01D9
:100CB00017820895E0ECF8E082818E7F82830895A8
:100CC000E0ECF8E082818160828308950F9391E0E7
:100CD000909357291092562960935429709355295F
:100CE0004093532920935229109251291092502950
:100CF00000934F29880F80934E2923E030E044E091
:100D000050E080915329882341F020934C2930935F
:100D10004D2980914E298E7F0BC0809152298823C6
:100D200051F040934C2950934D2980914E29816078
:100D30008093A70808C080915329811104C0809135
:100D40005229882311F3809156298823E1F3809159
:100D500056298330B1F280915229882321F0809165
:100D600050290F91089580915629823031F08530B5
:100D700031F0813031F480E0F4CF81E0F2CF83E0D4
:100D8000F0CF84E0EECFE0EAF8E0918590669187BD
:100D900022E030E020934C2930934D2980933E2966
:100DA00010923D29089581E080933D2910923E29BB
:100DB00093E09093AA089091AB0891FF10C0109215
:100DC0004A29E0913B29F0913C29099580934929D2
:100DD00085E090E080934C2990934D2908951092DE
:100DE0004B298093482986E090E0F4CF8F929F9220
:100DF000AF92BF92CF92DF92EF92FF92CF93DF93A9
:100E000060342DE0720723E08207910508F454C096
:100E1000611525E372072CE08207910508F445C0AF
:100E200060387F448241910508F046C0C8E7D0E0B1
:100E300020E432E44FE050E08090072890900828AA
:100E4000A0900928B0900A28C501B4010E94B639C3
:100E500069017A018AE0C81AD108E108F108C501E0
:100E6000B40120E432E44FE050E00E94B639DE01E4
:100E70000E94F73928EE33E040E050E00E94B63996
:100E8000C21AD30AE40AF50AF694E794D794C794F1
:100E9000C092A608DF91CF91FF90EF90DF90CF90A6
:100EA000BF90AF909F908F900895CCE2D1E020E862
:100EB0003AE146E050E0C0CFC8EED3E020EA36E8A1
:100EC00041E050E0B9CF6093392970933A290895F1
:100ED00060933729709338290895E0913929F0916A
:100EE0003A29309741F01092362910923529099508
:100EF00080913529089580E00895E0913729F09197
:100F00003829309759F030913429209133293217FC
:100F100028F0109234298093332909940895089574
:100F2000E091342980913329E81730F4F0E0ED5452
:100F3000F74D808190E008958FEF9FEF0895909195
:100F40003429809133292FEF3FEF981748F4E92F88
:100F5000F0E0ED54F74D208130E09F5F909334290D
:100F6000C90108958091332990913429891B990BE7
:100F70000895CF92DF92EF92FF920F931F93CF933A
:100F8000DF937C018A01EB016B01C40ED51ECC15E9
:100F9000DD0551F06991D701ED91FC910190F0814F
:100FA000E02DC7010995F3CFC801DF91CF911F91C3
:100FB0000F91FF90EF90DF90CF9008952091352909
:100FC00027FF08C021E030E0FC012283338390E05A
:100FD00080E0089580913629E82FF0E0ED5CF74D30
:100FE00060838F5F809336298093352981E090E07C
:100FF0000895DC01ED91FC91008CF18DE02D61E014
:1010000009940F9380914C2990914D290197A1F457
:1010100080915729811112C0062F20E04091352977
:1010200063E378E2809132280E94660610923629A6
:10103000109235290F91089580E0F8CF81E0F6CF26
:101040006093322810923629109235290895CF9353
:10105000DF93EC016EE38EEC9AE20E942008688137
:101060008EEC9AE20E94DE0769818EEC9AE20E9481
:10107000DE078EEC9AE2DF91CF910C94F907CF93C3
:10108000DF93D82FC62F62E68EEC9AE20E942008EA
:101090006D2F8EEC9AE20E94DE076C2F8EEC9AE2A6
:1010A0000E94DE078EEC9AE2DF91CF910C94F90753
:1010B000CF93DF93D62FC42F682F84E00E943F0880
:1010C0006D2F83E00E943F086C2F82E0DF91CF916B
:1010D0000C943F08DC01ED91FC91048CF58DE02D22
:1010E00021E009940F9383EB98E280933F2990933A
:1010F000402980914C2990914D290197C9F4809104
:101100005729811117C0FA014138510510F0E0E864
:10111000F0E0022F862F2E2F40E070E060E00E946A
:101120006606109234298093332990E00F91089538
:1011300080E0F7CF81E0F5CFCB01BA010C94F60641
:10114000E0EAF8E01382168281E085831486118636
:1011500010924C2910924D29089510923429109222
:101160003329109236291092352980914C2990917B
:101170004D29892BD9F482E090E080934C299093FB
:101180004D2910924B2910924A2910923D29109214
:101190003E291092312810924829660F6093AC08BE
:1011A00081EE8093A90881E08093A3088DE697E003
:1011B00080933B2990933C2983E398E280934129D3
:1011C000909342298DE797E0809346299093472991
:1011D00083EB98E2809343299093442980E880939D
:1011E00045290895109234291092332910923629F6
:1011F0001092352980914C2990914D29892BF1F439
:101200008091E3058093E30581E090E080934C2991
:1012100090934D29109250291092512910925729DC
:101220001092562981EC8093A30860EA76E881E069
:1012300090E00E94F60681E08093A5080895CF9281
:10124000DF92EF92FF92CF93C82F0E94EC026B01C6
:101250007C01809106288932C8F40E944C02892BB7
:10126000A9F0CC23B1F30E94EC026C197D098E0920
:101270009F09603177428105910558F7E091DE2A98
:10128000F091DF2A309729F30995E3CFCF91FF90B2
:10129000EF90DF90CF900895CF93DF931F92CDB75B
:1012A000DEB78983698184E89AE20F90DF91CF915C
:1012B0000C940C05CF93DF93D82FC62F80EE0E949D
:1012C0004C098D2F0E944C098C2F0E944C09C11192
:1012D00005C08EEEDF91CF910C944C09DF91CF9138
:1012E0000895DF92EF92FF920F931F93CF93DF93B6
:1012F000D82EE92E8B01F42E812F0E944C09802FCD
:101300000E944C09CD2DDE2D0C0F1D1FC017D107DB
:1013100021F089910E944C09F9CF81E0F8120AC0AE
:101320008EEEDF91CF911F910F91FF90EF90DF90A4
:101330000C944C09DF91CF911F910F91FF90EF908A
:10134000DF900895DF92EF92FF920F931F93CF9358
:10135000DF937C01C62FD42E862F0E944C09870173
:10136000D0E0C8018E199F098C179D0734F4F8014D
:1013700081918F010E944C09F4CFF1E0DF120AC085
:101380008EEEDF91CF911F910F91FF90EF90DF9044
:101390000C944C09DF91CF911F910F91FF90EF902A
:1013A000DF900895CF93DF93EC018FEF0E944C09FB
:1013B0008883DF91CF910895CF93DF931F92CDB7AC
:1013C000DEB71982CE0101960E94D20989810F9061
:1013D000DF91CF910895CF93DF93C9EED3E00E94C0
:1013E000DC098F3E69F0219711F0803EC1F721E0C2
:1013F00090E0803E09F020E0822FDF91CF910895A8
:101400008FEF9FEFFACFCF92DF92EF92FF920F9381
:101410001F93CF93DF931F92CDB7DEB7182F6B01C9
:101420007A0119820E94EB09892B61F490E080E037
:101430000F90DF91CF911F910F91FF90EF90DF9070
:10144000CF900895CE0101960E94D209106889813B
:101450001813ECCFCE0101960E94D2098981813008
:1014600029F78FEF0E944C09F701808310E000E01C
:10147000F70180818017110649F044F0C601800F02
:10148000911F0E94D2090F5F1F4FF2CFCE0101962C
:101490000E94D20981E090E0CBCFCF92DF92EF9211
:1014A000FF920F931F93CF93DF931F92CDB7DEB7B9
:1014B000182F7B016A0119820E94EB09892B61F4C4
:1014C00090E080E00F90DF91CF911F910F91FF90FE
:1014D000EF90DF90CF900895CE0101960E94D2093F
:1014E000106889811813ECCF0E94DC098823B1F0C1
:1014F0008FEF0E944C09F60180838701F60120815D
:10150000C8018E199F092817190641F03CF08FEF8A
:101510000E944C09F80181938F01F0CFCE01019612
:101520000E94D20981E090E0CDCF6F927F928F929E
:101530009F92AF92BF92CF92DF92EF92FF920F9362
:101540001F93CF93DF931F92CDB7DEB7182F662E70
:101550007A0119820E94EB09892B91F490E080E0D6
:101560000F90DF91CF911F910F91FF90EF90DF903F
:10157000CF90BF90AF909F908F907F906F90089585
:10158000CE0101960E94D209106889811813E6CF16
:101590000E94DC09782E882309F38701D12CC12C05
:1015A000882E912CC814D90404F58FEF0E944C09A1
:1015B000F8018083F12CE12CF80180818E151F0445
:1015C00071F06CF0A180B280AE0CBF1C8FEF0E9456
:1015D0004C09F5018083FFEFEF1AFF0AEDCF8FEF83
:1015E000C81AD80A0D5F1F4FDDCF7610B7CFCE01D6
:1015F00001960E94D20981E090E0B2CF61E070E0F4
:10160000809105280E94710284E89AE20C941605E4
:10161000CF93DF931F92CDB7DEB76983DC01ED91E5
:10162000FC910280F381E02D41E050E0BE016F5F4C
:101630007F4F09950F90DF91CF910895FC01878529
:1016400090890895DC01ED91FC91048CF58DE02DDD
:101650000994CF93DF931F92CDB7DEB76983DC0186
:10166000ED91FC910280F381E02D41E050E0BE015C
:101670006F5F7F4F09950F90DF91CF910895FC0127
:1016800067870895CF93DF931F92CDB7DEB7698345
:10169000DC01ED91FC910280F381E02D41E050E00E
:1016A000BE016F5F7F4F09950F90DF91CF91089535
:1016B000CF93DF9300D0CDB7DEB790E899838A83CC
:1016C000CE0101960E9427080F900F90DF91CF91D5
:1016D0000895CF93DF9300D0CDB7DEB780E4898340
:1016E0006A83CE0101960E94270881E090E00F9066
:1016F0000F90DF91CF9108950895DC011C968D9194
:101700009C91DC01ED91FC910280F381E02D099424
:10171000DC011C968D919C91DC01ED91FC91008483
:10172000F185E02D0994DC011C968D919C91DC01E2
:10173000ED91FC910688F789E02D0994CF93DF9312
:10174000EC01CF59DF4F48815981FC01E15AFF4F2D
:10175000608171810E947D0B21E030E048815981D8
:101760004817590711F030E020E018821982C901AA
:10177000DF91CF91089581E00895CF93DF93EC013D
:101780000E94930B882321F08FA5DF91CF910895BC
:1017900080E0FBCFDC01D2962D913C91D39726308F
:1017A000310551F41C968D919C91DC01ED91FC91D9
:1017B0000484F585E02D09948FEF9FEF0895CF9372
:1017C000DF931F92CDB7DEB7DC01ED91FC9102886B
:1017D000F389E02D41E050E0BE016F5F7F4F099536
:1017E000019731F4898190E00F90DF91CF910895B6
:1017F0008FEF9FEFF9CFFC0122A933A926303105E5
:1018000019F486A997A9089590E080E00895CF93F0
:10181000DF931F92CDB7DEB76983DC01ED91FC91B8
:101820000280F381E02D41E050E0BE016F5F7F4F09
:1018300009950F90DF91CF9108950F931F936093B7
:101840000028709301288093022890930328009128
:101850006429109165292091662930916729DC015E
:10186000CB01800F911FA21FB31F8093602990931B
:101870006129A0936229B09363291F910F91089564
:101880000F931F930E94EC028B019C0140912C2826
:1018900050912D2860912E2870912F2880916429D5
:1018A00090916529A0916629B0916729041B150BB9
:1018B000260B370B083E134021053105C0F0019679
:1018C000A11DB11D8093642990936529A093662979
:1018D000B093672948515C4F6F4F7F4F40932C283E
:1018E00050932D2860932E2870932F28CBCF4091B2
:1018F0006029509161296091622970916329841750
:101900009507A607B707D0F1E0916829F0916929FA
:101910003097A1F10995AB01BC018091002890910D
:101920000128A0910228B0910328411551056105B5
:10193000710579F140936429509365296093662974
:1019400070936729840F951FA61FB71F8093602986
:1019500090936129A0936229B093632982E090E07B
:1019600080936A2990936B290E94EC0260932C2843
:1019700070932D2880932E2890932F2860916429AE
:101980007091652980916629909167291F910F9127
:10199000089540916429509165296091662970915C
:1019A0006729840F951FA61FB71F80936029909306
:1019B0006129A0936229B093632981E090E020918E
:1019C0006A2930916B29232B11F490E080E08093F9
:1019D0006A2990936B29D2CF4F925F926F927F9238
:1019E0008F929F92AF92BF92CF92DF92EF92FF922F
:1019F0000F931F93CF93DF934B015C0180912828B5
:101A000090912928A0912A28B0912B288815990512
:101A1000AA05BB0509F4C6C08CE3C82ED12CE12C65
:101A2000F12CC501A70196010E94B639609398294F
:101A3000CA01B901A70196010E94B639609399299C
:101A4000C501B40120E13EE040E050E00E94B6391B
:101A5000CA01B90128E130E040E050E00E94B63907
:101A600060939A29C501B40120E831E541E050E0D6
:101A70000E94B63969017A01CA01B9016C5F7F4FD2
:101A80008F4F9F4F27E030E040E050E00E94B63992
:101A90006F5F60939B29412C512C320140E004E69A
:101AA00010E0C0E9D1E0242F30E02E54384FF90186
:101AB000E370FF273097F9F4C901B8010E94023C96
:101AC000892B31F4C901BE010E94023C892B99F493
:101AD0008EE691E0A0E0B0E0480E591E6A1E7B1E23
:101AE000D301C201AA27BB27C816D906EA06FB06FE
:101AF00038F04F5FD8CF8DE691E0A0E0B0E0ECCFBA
:101B000040939E29C90164E670E00E94023CEC010A
:101B1000C90160E971E00E94023C309721F42097EE
:101B2000D9F40097C9F04DE651E060E070E0441A46
:101B3000550A660A770AC418D508E608F708ACE91A
:101B4000B2EC20E0213069F43097E9F5209711F4E8
:101B50000097C9F54DE106C04EE651E060E070E047
:101B6000E6CF4C9150E070E060E031E0320FC416F7
:101B7000D506E606F70640F0C41AD50AE60AF70AC3
:101B80001196232F3C30F1F62F5F20939D29C394AB
:101B9000C0929C298092282890922928A0922A28D5
:101BA000B0922B28DF91CF911F910F91FF90EF9072
:101BB000DF90CF90BF90AF909F908F907F906F906D
:101BC0005F904F9008954CE1CDCF0895CF93DF9370
:101BD000EC018C859D85DC01ED91FC910288F389F7
:101BE000E02D09952EA13FA1285031092330310560
:101BF00068F42AA53BA51216130644F497FD06C007
:101C00002CA53DA5280F391F2CA73DA7DF91CF910B
:101C10000895CF93DF93EC018AA981110EC08C85C2
:101C20009D85DC01ED91FC910284F385E02D099501
:101C300097FF0FC0DF91CF910895E881F98100846B
:101C4000F185E02DCE010995892B49F78FEF9FEFA4
:101C5000F1CF4EA15FA19A012850310923303105FF
:101C600048F72AA53BA51216130634F42CA53DA56A
:101C70002F5F3F4F2CA73DA74A305105D9F62BA91E
:101C80003CA9215031092BAB3CAB232B99F629E021
:101C900030E02EA33FA3CECF2F923F924F925F9280
:101CA0006F927F928F929F92AF92BF92CF92DF926C
:101CB000EF92FF920F931F93CF93DF93EC010E945B
:101CC000EC024B015C0184E0282E312C06E010E090
:101CD00098E0492E512C29E0622E712C37E0E32E3A
:101CE000F12C45E0C42ED12C8EA19FA1089703971B
:101CF000F8F00E94EC02681979098A099B092DA95C
:101D00003EA94FA958AD621773078407950780F461
:101D1000E881F9810084F185E02DCE010995892BB8
:101D200011F568EE73E080E090E00E94BC02DCCF29
:101D30008EA19FA10897039708F49EC08DEF9FEF97
:101D4000DF91CF911F910F91FF90EF90DF90CF9097
:101D5000BF90AF909F908F907F906F905F904F90CB
:101D60003F902F900895E881F9810284F385E02D5A
:101D7000CE0109952EA13FA1A90148505109433038
:101D8000510508F43FC02530310509F440C0273023
:101D9000310509F452C02430310509F06AC0AEA5FE
:101DA000BFA59C91891312C09D012F5F3F4F2EA7A5
:101DB0003FA711969C91911106C0CEA2DFA21AA650
:101DC0001BA61CA61DA68A30E9F445C0E8A9F9A9FE
:101DD000908189130DC09F012F5F3F4F28AB39AB16
:101DE00091819111F0CF91E09AAB0EA31FA3EBCF9D
:101DF000A55AB44CD1F7E65BF44CB9F78D30A9F78E
:101E0000EEA2FFA20E94EC024B015C016DCF282FD5
:101E1000082E000C330B205331092A30310528F7E6
:101E20006AA57BA59AE0969FA001979F500D11246B
:101E3000240F351F2AA73BA7C6CF8A3019F78AA9D6
:101E40008823A1F06EA27FA21BAA1CAA8EA19FA12B
:101E500008970397B8F22EA23FA285EA94EC8EA7CA
:101E60009FA786EB94EC88AB99ABCCCF4EA25FA238
:101E7000EDCF8A3039F6EACF90E080E061CFCF93A2
:101E8000DF93EC018C859D85DC01ED91FC9104884C
:101E9000F589E02D09951EA21FA218A619A68FEF9D
:101EA0009FEF8AA79BA71CA61DA685EA94EC8EA788
:101EB0009FA786EB94EC88AB99AB1AAA1BAA1CAA25
:101EC00080E395E7A0E0B0E08DAB9EABAFABB8AFE1
:101ED000DF91CF910895FC0145AB56AB67AB70AF76
:101EE0000895FC0165A976A987A990AD089521E020
:101EF000FC0184859585892B09F420E0822F0895C3
:101F0000DC011C968D919C91DC01ED91FC91068881
:101F1000F789E02D0994DC011C968D919C91DC01E0
:101F2000ED91FC910088F189E02D0994DC012BE80A
:101F300033EC2D933D9320E1FB01329601900D92FD
:101F40002A95E1F7FB0122893389FC01228B338B2F
:101F50000895CF92DF92EF92FF920F931F93CF934A
:101F6000DF93CDB7DEB76497CDBFDEBF6A01DC017A
:101F70001C960D911C91D801ED91FC91E684F7849B
:101F8000CE0101960E94960FA601BE016F5F7F4FA2
:101F9000C801F70109956496CDBFDEBFDF91CF91EF
:101FA0001F910F91FF90EF90DF90CF900895DC018B
:101FB0001C968D919C91DC01ED91FC910680F7813E
:101FC000E02D0994DC011C968D919C91DC01ED9132
:101FD000FC910484F585E02D0994FC0186A197A16C
:101FE0000897039758F422A533A52F3F320731F005
:101FF00081E044A555A5421753070CF480E00895ED
:10200000DC01ED91FC910088F189E02D23E030E0C6
:10201000099490E080E00895CF93DF93EC0182E093
:102020000E944C098D2F0E944C098C2FDF91CF917B
:102030000C944C092BE833ECFC0120833183128A89
:10204000138A029620E1FC0111922A95E9F708957E
:10205000CF93DF9326E0289FE001299FD00D112424
:10206000C75FD34D88819981009741F00E94F33C6E
:102070001A821B82188219821C821D82DF91CF91E5
:102080000895FC0180819181009711F00C94F33C3C
:1020900008950C94F33C0F931F93CF93DF93EC01BF
:1020A00081EF93EC888399838E0104591F4FF801C7
:1020B00080819181009729F00E94F33CF801108201
:1020C00011828E010C591F4FF80180819181009778
:1020D00029F00E94F33CF80110821182CE018C5A43
:1020E0009F4F0E944110CE01CE960E944110CE011A
:1020F0004C960E944110CE0146960E944110CE019E
:102100004096DF91CF911F910F910C944110CF9386
:10211000DF93EC010E944B10CE01DF91CF910C9424
:10212000F33C0C94F33C0F931F93CF93DF938A01FE
:10213000FC01E15AFF4FEC01CF59DF4F2081318183
:1021400088819981820F931F0E94573E88819981CF
:10215000800F911F88839983C801DF91CF911F91D0
:102160000F910895CF93DF9300D0CDB7DEB77627D8
:102170006727762769837A8342E050E0BE016F5F6C
:102180007F4F0E9493100F900F90DF91CF91089591
:10219000CF92DF92EF92FF920F931F93CF93DF9333
:1021A000EC016B018A01BA010E94B2107C01A80106
:1021B000B601CE010E9493108E0D9F1DDF91CF912D
:1021C0001F910F91FF90EF90DF90CF900895CF92E5
:1021D000DF92EF92FF920F931F93CF93DF931F92A3
:1021E000CDB7DEB779016C012FE5C20ED11CD60147
:1021F0000D931C938C010F591F4FF801108211820F
:10220000F0E16F9FB0011124462B498341E050E07B
:10221000BE016F5F7F4F0E9493108E2D8F77EE0C63
:10222000EF2CEE1CFF08F194E114F10409F0806832
:10223000D601ED91FC91D8012D913C911197A90106
:102240004F5F5F4F4D935C931197E20FF31F8083B5
:10225000E114F10411F78D919C910F90DF91CF91D2
:102260001F910F91FF90EF90DF90CF900895CF9244
:10227000DF92EF92FF920F931F93CF93DF93CDB72F
:10228000DEB7BC01CDB6DEB690919C2B933008F042
:102290005CC0E090992BF0909A2B9701911144C06B
:1022A0002E5F3F4FA9014B5F5F4FEDB7FEB7E41BB9
:1022B000F50BEDBFFEBF0DB71EB70F5F1F4F40916F
:1022C0009B2B992311F0990F492B80919D2B811104
:1022D0004860260F371F63E081E49BE20E94E7100D
:1022E0006091952B7091962BA70181E49BE20E944F
:1022F000C81080919C2B882341F060919E2B709197
:102300009F2B81E49BE20E94B21081E49BE20E9439
:102310009E0BCDBEDEBEDF91CF911F910F91FF903E
:10232000EF90DF90CF9008952C5F3F4F40919E2B10
:1023300050919F2B4F5F5F4F29F040939E2B5093FE
:102340009F2BB0CF41E050E0F8CF90E080E0E1CFAC
:10235000CF92DF92EF92FF920F931F93CF93DF9371
:1023600000D000D0CDB7DEB77C01FC01E95BFF4FA8
:102370008081813001F53296C080D1808E010F5F5F
:102380001F4F22E030E040E064E0C7010E94E71008
:10239000B601C7010E94B210C7010E949E0B24968D
:1023A000CDBFDEBFDF91CF911F910F91FF90EF90D6
:1023B000DF90CF900895823091F7F701E75BFF4FF0
:1023C000C080D1808E010F5F1F4F22E030E040E0DF
:1023D00065E0DBCF8F929F92AF92BF92CF92DF9258
:1023E000EF92FF920F931F93CF93DF93DC01D2966E
:1023F0002D913C912630310581F010E000E0C801BC
:10240000DF91CF911F910F91FF90EF90DF90CF90D0
:10241000BF90AF909F908F9008958A015B01EC016F
:10242000E881F9810084F185E02D09956C01081798
:10243000190708F46801750110E000E00C151D058E
:10244000A9F00E94EC024B015C01CE010E94880BB6
:10245000892BF1F08C859D85DC01ED91FC91028446
:10246000F385E02D09958F3F980719F501151105A2
:1024700021F28EA99FA9801B910B8EAB9FAB892B5C
:1024800009F0BDCFCE010E94A8111AAA1BAAB7CF8E
:10249000CE010E94930B882349F30E94EC02681935
:1024A00079098A099B09683E73408105910568F2A4
:1024B000DDCF0F5F1F4FD7018D937D01BFCFEF920F
:1024C000FF920F931F93CF93DF9300D0CDB7DEB76A
:1024D0007C01DC01ED91FC910688F789E02D0995DE
:1024E000882369F08E010F5F1F4F30E020E040E04D
:1024F0006EE0C7010E94E710C7010E949E0BF70122
:1025000017A684859585DC01ED91FC910488F589F9
:10251000E02D09950F900F90DF91CF911F910F91B2
:10252000FF90EF900895AF92BF92CF92DF92EF921B
:10253000FF920F931F93CF93DF935B018A01FC01FE
:10254000E059FF4F20813181232B61F0DF91CF9142
:102550001F910F91FF90EF90DF90CF90BF90AF90C1
:102560000C949310FC01ED59FF4F2081222361F060
:10257000DF91CF911F910F91FF90EF90DF90CF905F
:10258000BF90AF900C947D0B7C0126E6E20EF11C0F
:10259000F701C080D180FC0123A534A54C0D5D1D41
:1025A0004217530718F089010C191D09EC01CC5989
:1025B000DF4F88819981892B29F4C9010E94573CFA
:1025C0008883998388819981A801B5018C0D9D1D0F
:1025D0000E94573EF70180819181800F911F808377
:1025E0009183C801DF91CF911F910F91FF90EF90E0
:1025F000DF90CF90BF90AF900895FB010190002035
:10260000E9F73197AF01461B570BDC01ED91FC91C7
:102610000280F381E02D09948F929F92AF92BF9236
:10262000EF92FF920F931F93CF93DF93CDB7DEB757
:10263000A197CDBFDEBF7C01FA01CB0119A22230E8
:1026400008F42AE08E010F5D1F4F822E912CB12CD1
:10265000A12CBF01A50194010E94B639F901CA015C
:102660006A30F4F4605DD8016E938D01232B242B26
:10267000252B79F790E080E0109721F0BD01C7018C
:102680000E94FD12A196CDBFDEBFDF91CF911F91B9
:102690000F91FF90EF90BF90AF909F908F90089513
:1026A000695CE1CF2F923F924F925F926F927F923F
:1026B0008F929F92AF92BF92CF92DF92EF92FF9252
:1026C0000F931F93CF93DF9300D01F92CDB7DEB748
:1026D0008A839B834B01FC0182899389019709F0CE
:1026E000CEC08F0144244A9431E090E08FEF20E087
:1026F00042814111B0C043814111ADC09F5F8F3F06
:1027000011F4822F91E0391714F4392F482E3296A4
:102710002F5F283069F71A821B82D12CC12CA42C80
:10272000042C000CBB083501630E711C37FD7A9434
:10273000CA14DB0424F0C614D7040CF490C0F801CA
:102740008281682F70E094E0759567959A95E1F71E
:10275000362E8F70582E8381E82EF12C24E0F594CC
:10276000E7942A95E1F72E2C8F708983662309F46C
:10277000B7C0F9E0F61708F470C0605DC4010E94AC
:1027800000032A813B81280F391F2A833B8339E0CC
:1027900060E3351508F467E5650DC4010E94000388
:1027A000EA81FB81E80FF91FEA83FB83311004C043
:1027B000511002C0222079F0F9E060E3F21508F42C
:1027C00067E56E0DC4010E9400032A813B81280F3A
:1027D000391F2A833B833981632F605D3A3010F0C3
:1027E0006981695AC4010E940003EA81FB81E80FF4
:1027F000F91FEA83FB83F7E0CF16D10451F06AE3B7
:10280000C4010E9400032A813B81280F391F2A83BB
:102810003B833FEFC31AD30A0E5F1F4F88E0C816F1
:10282000D10409F085CF8A819B812396CDBFDEBF7D
:10283000DF91CF911F910F91FF90EF90DF90CF909C
:10284000BF90AF909F908F907F906F905F904F90D0
:102850003F902F9008958FEF5ACF695A8FCFAC14C5
:10286000BD04B9F64110CBCF6AE3C4010E94000356
:10287000EA81FB81E80FF91FEA83FB83C0CFEA807E
:10288000FB80EEE0EE0EF11CAA80BB80F1E1AF0E02
:10289000B11C10E000E0F70141917F0150E070E0D1
:1028A00060E02AE0C4010E940C136C016EE2C401D6
:1028B0000E9400038C0D9D1D080F191FAE14BF044C
:1028C00051F7EA81FB81418950E070E060E02AE045
:1028D000C4010E940C13800F911F8A839B83A3CF96
:1028E000511055CF67CF8F929F92AF92BF92CF92E8
:1028F000DF92EF92FF920F931F93CF93DF93EC0140
:102900006A017B01AB019601CB01B6010E94B43B89
:1029100061ED74EC811126C046015701E894B7F8C7
:102920002FEF3FEF4FE75FE7C501B4010E94B43BD3
:1029300081110CC02FEF3FEF4FE75FE7C501B401F6
:102940000E94823865ED74EC181664F02FEF3FEFAB
:102950004FE75FE4C701B6010E945F3B18168CF495
:1029600069ED74ECCE01DF91CF911F910F91FF9033
:10297000EF90DF90CF90BF90AF909F908F900C948E
:10298000FD122FEF3FEF4FE75FECC701B6010E944A
:10299000823887FDE5CF20E030E0A901C701B6010C
:1029A0000E94823810E000E087FF09C06DE2CE018E
:1029B0000E9400038C01F7FAF094F7F8F0942AE0F3
:1029C00037ED43EA5BE3C701B6010E944B3A6B0166
:1029D0007C010E94303B4B015C010E9487389B01C7
:1029E000AC01C701B6010E944A3A6B017C012AE0A2
:1029F000B501A401CE010E940C13080F191F68E451
:102A000076ECCE010E94FD12080F191F20E030E085
:102A100040E251E4C701B6010E94E8384B015C0175
:102A20000E94303B6B01F12CE12C2AE0B701A6019A
:102A3000CE010E940C13080F191FC701B6010E9496
:102A400087389B01AC01C501B4010E944A3A20E0DD
:102A500030E040E251E40E94E8380E94303BAB0194
:102A600070E060E02AE0CE010E940C13800F911FFD
:102A7000DF91CF911F910F91FF90EF90DF90CF905A
:102A8000BF90AF909F908F9008956DED74EC0C9473
:102A9000FD12CF93DF9369EE79E20E945213EC01AD
:102AA00089EE99E20E9445158C0F9D1FDF91CF9111
:102AB00008950F931F93CF93DF938C01D0E0C0E074
:102AC0006115710519F00E94FD12EC01C8010E9408
:102AD00045158C0F9D1FDF91CF911F910F91089588
:102AE000CF92DF92EF92FF920F931F93CF93DF93DA
:102AF00000D000D0CDB7DEB760EE74EC89EE99E27D
:102B00000E9459150E94EC020091D02B1091D12BFC
:102B10002091D22B3091D32B1016110612061306DA
:102B2000F4F40091CC2B1091CD2B2091CE2B309131
:102B3000CF2B011511052105310589F0AB01BC0131
:102B4000401B510B620B730B8091CA2B9091CB2BC6
:102B5000B0E0A0E0481759076A077B07E8F18091C9
:102B60002028811115C08091C42B9091C52BDC01C8
:102B7000ED91FC910684F785E02D6BE770E00995F7
:102B800090E080931E2890931F2881E08093202856
:102B900083EE90E0A6E0BCEE89839A83AB83BC838E
:102BA00080911E2890911F28892B09F043C080E056
:102BB00090E0DC018093D02B9093D12BA093D22B6B
:102BC000B093D32B0E94EC026093CC2B7093CD2B4F
:102BD0008093CE2B9093CF2BC090D02BD090D12B25
:102BE000E090D22BF090D32B0E94EC020091CC2BE2
:102BF0001091CD2B2091CE2B3091CF2B601B710BE0
:102C0000820B930B28EE33E040E050E00E94B6398F
:102C1000CA01B9016C0D7D1D8E1D9F1D2496CDBF6F
:102C2000DEBFDF91CF911F910F91FF90EF90DF906A
:102C3000CF9008958091C42B9091C52BDC01ED912C
:102C4000FC910680F781E02D09958091C42B90912D
:102C5000C52B6091C62B7091C72BDC01ED91FC91C7
:102C60000688F789E02D4BE750E00995892B09F498
:102C70009ECF8091C42B9091C52BDC01ED91FC91EE
:102C80000280F381E02D40E350E0BE016F5F7F4F93
:102C90000995C09709F08BCF8091C42B9091C52BDB
:102CA000DC01ED91FC91008CF18DE02D0995892BD3
:102CB00009F47DCF1FE08091C42B9091C52BDC01DE
:102CC000ED91FC91028CF38DE02D0995C09749F0B0
:102CD00066E970E080E090E00E94BC02115059F774
:102CE00066CF18E28091C42B9091C52BDC01ED9149
:102CF000FC910284F385E02D0995115099F780919C
:102D0000C42B9091C52BDC01ED91FC910284F385DD
:102D1000E02D09956C01990FEE08FF0813E0FE2CD9
:102D2000ED2CDC2CCC248091C42B9091C52BDC01A4
:102D3000ED91FC910284F385E02D0995092E000C9C
:102D4000AA0BBB0BC82AD92AEA2AFB2A115039F749
:102D50008091C42B9091C52BDC01ED91FC910284F4
:102D6000F385E02D09958C018091C42B9091C52BA2
:102D7000DC01ED91FC910680F781E02D09958091B1
:102D8000C82B9091C92B092E000CAA0BBB0B8058A5
:102D90009E47AA4AB3488C0D9D1DAE1DBF1D41E044
:102DA00050E060E070E0023611051CF440E050E0B5
:102DB000BA01840F951FA61FB71FFCCEEF92FF929A
:102DC0000F931F93CF93DF93EC018B017A018EA1B8
:102DD0009FA1029744F48C859D850E94451582E051
:102DE00090E08EA39FA38C859D85DC01ED91FC91E5
:102DF0000280F381E02DA701B801DF91CF911F91EF
:102E00000F91FF90EF9009941F93CF93DF93EC0104
:102E1000162F8EA19FA1029744F48C859D850E9458
:102E2000451582E090E08EA39FA38C859D85DC01F3
:102E3000ED91FC910190F081E02D612FDF91CF9118
:102E40001F9109940C94FD12CF92DF92EF92FF92A2
:102E50000F931F93CF93DF93CDB7DEB72597CDBFE9
:102E6000DEBF0E94400C0E94EC0C88E9C82E89E26B
:102E7000D82EF60182811F928F939EEFE92E94EC5B
:102E8000F92EFF92EF928E010F5F1F4F1F930F934A
:102E90000E94A03EB80189EE99E20E9422170E948A
:102EA000400C0E94EC0CF60181811F928F93FF92DF
:102EB000EF921F930F930E94A03EB80189EE99E212
:102EC0000E9422170E94400C0E94EC0CF6018081A7
:102ED0001F928F9384E095EC9F938F931F930F9392
:102EE0000E94A03EB80189EE99E20E942217CDBF50
:102EF000DEBF2596CDBFDEBFDF91CF911F910F9131
:102F0000FF90EF90DF90CF900895FC0124813581F0
:102F1000FB014481558124173507A0F0FC01808115
:102F20009181009779F0FB016081718161157105D4
:102F300049F0241B350B820F931F0E94603E21E055
:102F4000892B09F020E0822F08950F931F93CF93D0
:102F5000DF93EC0188819981009759F02A813B81A8
:102F60002617370730F081E0DF91CF911F910F9145
:102F700008958B016F5F7F4F0E947C3D009759F051
:102F8000888399830A831B832C813D81232B59F7E6
:102F9000FC011082E8CF80E0E7CFFF920F931F93F0
:102FA000CF93DF93EC01F62E0C811D810F5F1F4F35
:102FB000B8010E94A517882379F0E881F9812C8156
:102FC0003D81E20FF31FF0820C831D83288139813C
:102FD000020F131FF8011082DF91CF911F910F9103
:102FE000FF900895EF92FF920F931F93CF93DF937B
:102FF000EC017B018A01BA010E94A5172881398161
:10300000811114C02115310519F0C9010E94F33C4A
:10301000188219821C821D821A821B82CE01DF91C6
:10302000CF911F910F91FF90EF9008950C831D8316
:10303000A801B701C9010E94573EE881F9818C813E
:103040009D81E80FF91F1082E9CFFB01019000205C
:10305000E9F73197AF01461B570B0C94F217FC01AF
:1030600010821182128213821482158261157105F9
:1030700051F0FB0101900020E9F73197AF01461BA9
:10308000570B0C94F21708952F923F924F925F9234
:103090006F927F928F929F92AF92BF92CF92DF9268
:1030A000EF92FF920F931F93CF93DF93CDB7DEB7CD
:1030B0006297CDBFDEBF7C010E94880B892B61F433
:1030C000C7010E94930B811107C0D701D2961D92B0
:1030D0001C92D3979F961C92F701E05BFF4FED8304
:1030E000FE836701FEE4CF0ED11CC701875B9F4FB3
:1030F0008F83988757019BE4A90EB11C4701A4E474
:103100008A0E911CF701EE5BFF4FE987FA872701D2
:10311000F7E44F0E511C17018DE5280E311CD70125
:10312000A35BBF4FAB87BC87F701ED59FF4FED871E
:10313000FE87C701845B9F4F8F87988B1797A98B5A
:10314000BA8BC7010E94880B892B09F4EEC0F701E6
:1031500084859585DC01ED91FC910284F385E02D59
:1031600009958C010E94EC02ED81FE8160837183E0
:1031700082839383D701D296ED91FC91D397E83067
:10318000F10508F0CCC0E953F74E0C94163CCF186B
:10319000E818C819381A881ABC1AFD1AFD1AC8018D
:1031A000F4E095958795FA95E1F78F709927F701E7
:1031B00084AB0F7005AB16AA17AA81E090E0A0E0DF
:1031C000B0E080AF91AFA2AFB3AF82AB93ABA7C07B
:1031D000D8964D915D916D917C91DB97C8018F7769
:1031E0009927849F9001859F300D949F300D112465
:1031F000D6968D919C91D797280F391FD6962D93EF
:103200003C93D797E7E0440F551F661F771FEA9559
:10321000D1F7F70140AF51AF62AF73AF4130510505
:1032200060427105E8F0ED91FC910488F589E02D8C
:10323000C70109956296CDBFDEBFDF91CF911F9187
:103240000F91FF90EF90DF90CF90BF90AF909F9045
:103250008F907F906F905F904F903F902F90089548
:1032600007FD6FCFF70184A9823041F09CEF980FE2
:10327000923020F0873011F08B3059F4D701D59679
:103280009C91911104C02230310509F4DFC1D701AE
:10329000CACF833009F585A986708630C1F3F7015E
:1032A00085A9982F991F9927991FA989BA899C9355
:1032B000282F30E0359527952370F2012083F70100
:1032C000E85BFF4F8170808383E090E0D701D29666
:1032D0008D939C93D39720C0863051F4D5968C91D2
:1032E0008230A9F62230310591F682E090E0EECFEF
:1032F000893039F485A98111CACF23303105A9F36A
:10330000C6CF8D3021F6D5968C918111C0CF232B5D
:1033100009F0BDCF12AA13AAF60110821182F7019B
:1033200082A993A9069709F00CCFD7019F968C919B
:10333000882309F47FCF0E94EC02F70103A114A1B6
:1033400025A136A1E859FF4F80809180A280B380EB
:103350002B013C01481859086A087B0853014201B7
:1033600080169106A206B30608F45AC160837183E1
:10337000828393838E010F5F1F4F30E020E040E097
:103380006CE0C7010E94E710C7010E949E0B52CF5C
:10339000D6018D919C9111979C012F5F3F4F2D93EA
:1033A0003C938E0D9F1DFC01E55BFF4F0083F701F1
:1033B00086A997A92817390709F0C3CE12AA13AA1C
:1033C00084A9823039F4AF85B8898C9190E084AFBC
:1033D00095AFA5CF9CEF980F923020F0873011F079
:1033E0008B3089F4F501808191819827892798276E
:1033F000D1012D913C912817390709F0A2CEF70190
:1034000014AE15AE8CCF8630E9F4D5016D907C906A
:10341000762467247624ED85FE858081811191CE06
:103420008E010F5F1F4F22E030E040E067E0C701F0
:103430000E94E710B301C7010E94B210C7010E94A9
:103440009E0B6DCF893009F07CCED5018D919C917A
:10345000982789279827F10120813181281739077A
:1034600009F06FCEAB85BC858C9190E0F701AFCFB2
:10347000D6018D919C9111979C012F5F3F4F2D9309
:103480003C938E0D9F1DFC01E55BFF4F00832230B6
:10349000310509F056CEF501808191819827892761
:1034A0009827D4018D939C93F70186A997A9029739
:1034B00086AB97AB6FED74EC8701025C1F4FC801C0
:1034C0000E942518D4016D917C91C8010E94A51716
:1034D000F2014081D701D6962D913C91D797F40106
:1034E00080819181442381F002962817390708F4DE
:1034F0009ACEF6011082118284E090E0D701D29634
:103500008D939C93D3970BCF2817390790F7BFCE95
:10351000602FC701CE960E94CD17F4012081318122
:10352000A985BA858D919C912817390709F0F7CEA6
:10353000F70186A997A9821B930B86AB97ABD201A3
:103540002C91222319F085E090E03FCE26E030E078
:1035500022AB33AB0684F785E02D309709F4E5CE36
:103560000995D701D6968D919C91892B09F0D7CEDC
:10357000F70112AA13AAD3CED6018D919C9111976F
:103580009C012F5F3F4F2D933C938E0D9F1DFC019F
:10359000E55BFF4F00832230310509F0D2CDF70102
:1035A00086A997A9029786AB97ABD5012D913C913F
:1035B000322723273227EF81F8852083318326E0C5
:1035C00030E0D701D2962D933C93D3971E96ED9180
:1035D000FC91309709F00995F70186A997A9892BE5
:1035E00009F09DCEC7010E94A811D7011E968D91AA
:1035F0009C91892B09F0BCCF92CEF70186A997A99F
:10360000009719F0019786AB97ABD701D6968D91AD
:103610009C91D797892B09F4ABCF87E090E06FCFCF
:10362000F701E05BFF4F80809180A280B380681932
:1036300079098A099B09000F111F221F331F601788
:1036400071078207930708F4F5CD21CE833009F482
:1036500026CE4BCE2F923F924F925F926F927F92E7
:103660008F929F92AF92BF92CF92DF92EF92FF9292
:103670000F931F93CF93DF93CDB7DEB76C97CDBF7A
:10368000DEBF7C013B014A0159012DB73EB72B8FAC
:103690003C8F0E94930B882359F0D7011C968D9183
:1036A0009C91DC01ED91FC910488F589E02D099550
:1036B000F70112AA13AA17A6E35AFF4F108211822C
:1036C000D7011C96CD90DC90D601ED91FC91811430
:1036D000910459F10088F189E02DA501B401C601DA
:1036E0000995892B81F58EEF9FEFF70185A796A7A6
:1036F00010E000E0C801EB8DFC8DEDBFFEBF6C96C5
:10370000CDBFDEBFDF91CF911F910F91FF90EF9062
:10371000DF90CF90BF90AF909F908F907F906F90F1
:103720005F904F903F902F90089586849784B301C7
:10373000CE0101960E94960FA501BE016F5F7F4FDB
:10374000C601F401CDCF0E94EC02F701E05BFF4F10
:1037500060837183828393831D8A1E8A1F8A188ED9
:10376000198E1A8ED70150966D917C9151976115E3
:10377000710539F054964D915C91CE0145960E94A9
:10378000F217698C7A8CF701828C938CA0A0B1A07F
:103790009E012F5F3F4F290161147104F1F40E94D3
:1037A000EC029F938F937F936F938AE095EC9F93A6
:1037B0008F931F9281E18F935F924F920E94703E90
:1037C000B201CE0145960E9425188DB79EB70A9684
:1037D0008DBF9EBF70E1672E712C17019EE6290EEA
:1037E000311CD101CD90DC90BCE0CB0ED11CC60CBD
:1037F000D71C80E08114910429F0C4010296C80E00
:10380000D91E80E8A114B10431F0806495012E5FC7
:103810003F4FC20ED31EF701EE58FF4F9081892B08
:10382000F70192A19111826020E034E029833A836C
:10383000409118C5509119C560911AC570911BC56A
:103840004B835C836D837E8394E09F838887D7015D
:1038500093966D917D918D919C91969728EE33E092
:1038600040E050E00E94B639922F8827232F342F52
:10387000452F5527282B392B29873A87C6010596CE
:10388000EDB7FEB7E81BF90BEDBFFEBF0DB71EB7D6
:103890000F5F1F4F960140E061E0C7010E94E710F3
:1038A0004AE050E0B201C7010E9493106D897E8901
:1038B000A301C7010E94C810D1014D915C9141152F
:1038C000510541F0F701E459FF4F60817181C70153
:1038D0000E9493108114910439F0F7016689778969
:1038E000A401C7010E94C810A114B10441F0D7017E
:1038F0005C966D917C91A501C7010E94C810C7011B
:103900000E949E0B8C01892BA1F4F701848595857B
:10391000DC01ED91FC910488F589E02D099583E0A7
:1039200090E0F70185A796A7CE0145960E94411029
:10393000E1CE8FEF9FEFD701DC968D939C93DD97BF
:103940000E94EC024B015C010E94EC0268197909AB
:103950008A099B09F70107A110A521A532A56017C7
:1039600071078207930770F4C7010E94930B8823A5
:1039700049F0C7010E944418D701DC968D919C91B3
:10398000019611F3F70184AD95AD85A796A7892B14
:1039900029F481E087A701E010E0C6CF84859585F2
:1039A000DC01ED91FC910488F589E02D099510E08A
:1039B00000E0BACFCF93DF93CDB7DEB76497CDBF2A
:1039C000DEBF9A014BE853EC49835A831B8A1C8A59
:1039D000FE0133964CE0DF011D924A95E9F71F8600
:1039E000188A198A1A8AAB01BE016F5F7F4F0E9445
:1039F0002A1B6496CDBFDEBFDF91CF910895EF9271
:103A0000FF920F931F93CF93DF93CDB7DEB76497E9
:103A1000CDBFDEBF8C017A01CE0101960E94960FC8
:103A2000970150E040E0BE016F5F7F4FC8010E94E8
:103A30002A1B6496CDBFDEBFDF91CF911F910F91FE
:103A4000FF90EF9008950E94393ECF92DF92EF925F
:103A5000FF920F93FC01C12CB9E0DB2EBDE3EB2EEE
:103A6000F12CC082D182E282F3821482158281E03D
:103A700090E086839783C0900728D0900828E09034
:103A80000928F0900A28F694E794D794C79490E018
:103A90004C155D056E057F0540F4F694E794D794C8
:103AA000C7949F5F9630A1F797E004600187892F44
:103AB0008095A82FA170B0E084E0AA0FBB1F8A9563
:103AC000E1F791629A2B80E0232B09F480E4982B94
:103AD00090870F91FF90EF90DF90CF9008950F9314
:103AE0001F93CF93DF93CDB7DEB72A97CDBFDEBF4D
:103AF0008C01FC01878181110CC010861186128611
:103B000013861486158616861786108A118A81E018
:103B100087838091E305F8019681892B8093E305E3
:103B200061E070E083810E94760261E070E0F8015C
:103B300084810E9476028091C10884608093C108CC
:103B40008091C00881628093C0084091C62A50913C
:103B5000C72A6091C82A7091C92A0091CA2A209167
:103B6000CC2A3091CD2ACE0101960E94251D99853F
:103B70008A859093C0088093C1082A96CDBFDEBF86
:103B8000DF91CF911F910F910895CF9383E280939E
:103B9000052884E280930628C1E0C09330288DE197
:103BA0008093042861E070E083E20E94A90170E044
:103BB00060E084E20E94760261E070E08DE10E94A4
:103BC000760261E070E08CE10E94A90161E070E0A2
:103BD0008CE10E94090261E070E083E20E947102C0
:103BE00061E070E08DE10E9471026AE070E080E0C7
:103BF00090E00E94BC0270E060E08DE10E947102E2
:103C00006EEE72E080E090E00E94BC0270E060E046
:103C10008CE10E94090270E060E08CE10E94A90141
:103C200084E89AE20E946F1DC093C029CF91089545
:103C30005F926F927F928F929F92AF92BF92CF923C
:103C4000DF92EF92FF920F931F93CF93DF93CDB745
:103C5000DEB76297CDBFDEBF3C010B871C872D8787
:103C60003E87042F4F87588B698B7A8B29893A8935
:103C70004B855C856D857E85CE0101960E94251D54
:103C800059841A85D30118968C91882319F081FFE5
:103C900018C0F8945092C0081093C1086296CDBF26
:103CA000DEBFDF91CF911F910F91FF90EF90DF90DA
:103CB000CF90BF90AF909F908F907F906F905F90CC
:103CC000089580FFE7CFF30182849384A484B584B0
:103CD000C12CD12C7601B0E09401A501B601C70139
:103CE000A0E00E944B3CA9F1217030E040E050E0A0
:103CF00060E070E080E090E00E944B3CE9F090E0F2
:103D000080E0B03370F48B2F869586958695F0E22F
:103D10008F9FC0011124805F9B4F2B2F2770820F34
:103D2000911DFC01408193012B0F311DF901428B44
:103D3000FC012081287F20839401A501B601C701E1
:103D400001E00E941E3C49015A016B017C01BF5FEA
:103D5000C3CFD3011E968D909D90AD90BC9051978E
:103D6000C12CD12C7601B0E29401A501B601C701A6
:103D7000A0E00E944B3C09F48DCF217030E040E080
:103D800050E060E070E080E090E00E944B3CE9F0A1
:103D900090E080E0B03370F48B2F86958695869501
:103DA000E0E28E9FC0011124805F9B4F2B2F277074
:103DB000820F911DFC01408193012B0F311DF901F0
:103DC000428BFC012081287F20839401A501B6014C
:103DD000C70101E00E941E3C49015A016B017C01B0
:103DE000BF5FC2CFCF92DF92EF92FF920F931F93EC
:103DF000CF93DF93CDB7DEB72897CDBFDEBF80E08E
:103E0000082F1D821E8281E0682F12E12AE730E030
:103E100040E05E8170E084E89AE20E94181E70E043
:103E200060E0809105280E9471020E94EC026B0103
:103E30007C01809106288932B8F00E94EC026C194E
:103E40007D098E099F09653071058105910588F30B
:103E50002896CDBFDEBFDF91CF911F910F91FF90CC
:103E6000EF90DF90CF9008950E944C02019781F36C
:103E7000E4CFCF92DF92EF92FF920F931F93CF93F5
:103E8000DF9300D000D0CDB7DEB77C0186E08E9DF9
:103E900080018F9D100D1124075F134DF80184815F
:103EA0009581892B09F08CC080819181892B59F4EF
:103EB00080E490E00E94573CF801828393838083E2
:103EC00091831482158280E490E089839A8386E04E
:103ED0008E9DF0018F9DF00D1124E75FF34DC080A2
:103EE000D180EC828CE10E944C02892B09F468C0DD
:103EF0008091C029811102C00E94C51D80E00E94EE
:103F00001F090E94F21E62E085E40E945A0940E007
:103F100061E070E0CE0104960E94710941E062E028
:103F200070E0CE0101960E9471090E94DC090E9496
:103F3000FE0A80E00E941F090E94F21E1B820E945E
:103F4000EB09892B49F1CE0103960E94D2098B819E
:103F5000853C11F50E94DC098823D1F08FEF0E9487
:103F60004C09182F8FEF0E944C09912F89839A8357
:103F7000860129813A81C8018C199D09821793070E
:103F800038F48FEF0E944C09F80181938F01F1CF33
:103F9000CE0103960E94D2090E94FE0A89819A816D
:103FA000009771F026E02E9DF0012F9DF00D112459
:103FB000E75FF34D208131812283338384839583AE
:103FC00086E08E9DF0018F9DF00D1124E75FF34D8B
:103FD000848195812496CDBFDEBFDF91CF911F9163
:103FE0000F91FF90EF90DF90CF900895CF92DF92E6
:103FF000EF92FF920F931F93CF93DF937C016B019E
:104000008A010E94391F0097F9F0801791070CF47C
:104010008C0186E08E9DE0018F9DD00D1124C75F3D
:10402000D34D6A817B81A801C6010E94573E8A81D7
:104030009B81800F911F8A839B838C819D81801B34
:10404000910B8C839D83C801DF91CF911F910F91BC
:10405000FF90EF90DF90CF900895CF93DF93FC0116
:1040600027853089121613068CF4EC01848590E0C4
:104070000E94F61F1816190634F42F853889281B5C
:10408000390B2F87388BDF91CF91089590E080E036
:10409000FACF0F931F93CF93DF931F92CDB7DEB765
:1040A000FC012785308912161306C4F48C0184851F
:1040B00041E050E0BE016F5F7F4F90E00E94F61F2D
:1040C000F8018785908901978787908B898190E097
:1040D0000F90DF91CF911F910F9108958FEF9FEF78
:1040E000F7CFFC01848590E00C94F61F0F931F938B
:1040F000CF93DF931F92CDB7DEB78C01DC01ED913A
:10410000FC910084F185E02D0995892B91F0F8014F
:10411000848541E050E0BE016F5F7F4F90E00E94D8
:10412000F61F898190E00F90DF91CF911F910F9141
:1041300008958FEF9FEFF7CFCF93DF93FC01278593
:104140003089121613062CF08FEF9FEFDF91CF917D
:104150000895C485D0E0CE010E94391F892BA1F3B8
:1041600086E08C9FF0018D9FF00D1124E75FF34DE9
:104170000280F381E02D808190E0E8CFCF93DF9340
:10418000FC01C485D0E0CE010E94391F892B81F04B
:1041900086E08C9FF0018D9FF00D1124E75FF34DB9
:1041A0000280F381E02D808190E0DF91CF9108952E
:1041B0008FEF9FEFFACFFC0184858F3F19F090E0DD
:1041C0000C94391F90E080E00895CF92DF92EF9237
:1041D000FF920F931F93CF93DF93CDB7DEB728974E
:1041E000CDBFDEBF6C01162F7A012F83088719829D
:1041F0001A821B821C828091C029811102C00E94F8
:10420000C51D80E00E941F090E94F21E65E08DE23C
:104210000E945A0940E0612FC6010E94A20940E0B5
:1042200064E0CE0101960E94A209C7010E940C1011
:1042300040E061E0CE0107960E94A20941E061E002
:10424000CE0108960E94A209012F10E0C8014196F4
:10425000837099270F5F1F4F892B19F00E94DC098B
:10426000F5CF0E94FE0A81E09885943009F080E045
:104270000E941F090E94F21E1E821D82AE014B5F2A
:104280005F4FBE016A5F7F4F8DE20E94030A0E946A
:10429000FE0A2896CDBFDEBFDF91CF911F910F910F
:1042A000FF90EF90DF90CF900895CF92DF92EF9242
:1042B000FF920F931F93CF93DF93CDB7DEB769972C
:1042C000CDBFDEBF7C018BE893EC89839A831B8A88
:1042D0001C8A6E0183E0C80ED11C8CE0F60111929D
:1042E0008A95E9F78FEF8F87888B898B8A8B8091EE
:1042F000C029811102C00E94C51D80E00E941F09D3
:104300000E94F21E60E085E30E945A090E94FE0AA4
:1043100080E00E941F090E94F21E198EAE01475EC6
:104320005F4FBE016B5E7F4F85E30E94030A8C01E5
:10433000892B21F1F701128A138AB7016E5F7F4F33
:1043400080E1FB0111928A95E9F78D899E89AF89F9
:10435000B88DF70186879787A08BB18B8B899C8955
:10436000892B41F440E150E0C6010E944A3E01E041
:10437000892B09F000E081E0082710E00E94FE0A86
:10438000C8016996CDBFDEBFDF91CF911F910F911C
:10439000FF90EF90DF90CF900895EF92FF920F93F0
:1043A0001F93CF93DF9300D0CDB7DEB77C01809110
:1043B000C029811102C00E94C51D80E00E941F0912
:1043C0000E94F21E61E084E30E945A09F701019005
:1043D0000020E9F73197BF016E197F0941E0C7015D
:1043E0000E94A209F70101900020E9F78F010E1940
:1043F0001F090C5F1F4FC80183709927892B29F073
:104400000E94DC090F5F1F4FF6CF0E94FE0A80E07A
:104410000E941F090E94F21E19821A82AE014E5F8D
:104420005F4FBE016F5F7F4F84E30E94030A182F26
:104430000E94FE0A112329F011E08981813009F0E0
:1044400010E0812F0F900F90DF91CF911F910F916E
:10445000FF90EF900895CF92DF92EF92FF920F932B
:104460001F93CF93DF93CDB7DEB7A897CDBFDEBF45
:104470008C017B016A01CE0145960E941A10C7018A
:104480000E94CD2181110EC090E080E0A896CDBFA2
:10449000DEBFDF91CF911F910F91FF90EF90DF90E2
:1044A000CF900895CE0145960E945521892B61F346
:1044B000D801ED91FC91E684F784BE016B5E7F4FDD
:1044C000CE0101960E94960FA601BE016F5F7F4F3D
:1044D000C801F7010995DACFCF92DF92EF92FF92F0
:1044E0000F931F93CF93DF93CDB7DEB7A897CDBFC0
:1044F000DEBF8C017B016A01CE0145960E941A1035
:10450000C7010E94CD2181110EC090E080E0A896E5
:10451000CDBFDEBFDF91CF911F910F91FF90EF9044
:10452000DF90CF900895CE0145960E945521892BAA
:1045300061F3D801ED91FC91E488F588BE016B5ED2
:104540007F4FCE0101960E94960FA601BE016F5FBC
:104550007F4FC801F7010995DACFCF93DF9300D0E1
:10456000CDB7DEB78091C029811102C00E94C51D60
:1045700080E00E941F090E94F21E60E080E20E941B
:104580005A090E94FE0A80E00E941F090E94F21E42
:104590008FEF89831A82AE014E5F5F4FBE016F5F5E
:1045A0007F4F80E20E94030A0E94FE0A89810F90D9
:1045B0000F90DF91CF910895CF93DF93CDB7DEB702
:1045C0002797CDBFDEBF8F8319821A821B821C8280
:1045D0006A837B834D835E838091C029811102C0F1
:1045E0000E94C51D80E00E941F090E94F21E61E02A
:1045F0008AE30E945A0941E061E0CE0107960E94D9
:10460000A2090E94DC090E94DC090E94FE0A80E0E7
:104610000E941F090E94F21EAE014F5F5F4F62E0D1
:104620008AE30E94950A0E94FE0A2796CDBFDEBF4C
:10463000DF91CF910895CF93DF93CDB7DEB7269763
:10464000CDBFDEBF19821A821B821C821D821E8290
:10465000AE014B5F5F4FBE016F5F7F4FFC018485F2
:104660000E94DC228D8190E0982F88272E81820F76
:10467000911D2696CDBFDEBFDF91CF9108950F9398
:104680001F93CF93DF93CDB7DEB72697CDBFDEBFA5
:104690008C01FB0119821A821B821C821D821E82E0
:1046A000AE014B5F5F4FBE016F5F7F4F84850E94FD
:1046B000DC228BE893ECD8018D939C931197529652
:1046C0001D921C925397F801329680E1DF011D92F2
:1046D0008A95E9F789819A81AB81BC81F801868747
:1046E0009787A08BB18BC8012696CDBFDEBFDF9127
:1046F000CF911F910F910895CF93DF93CDB7DEB780
:104700002697CDBFDEBF19821A821B821C821D82B2
:104710001E82AE014B5F5F4FBE016F5F7F4FFC019A
:1047200084850E94DC228D8190E0982F88272E813D
:10473000820F911D2696CDBFDEBFDF91CF910895E8
:104740000F931F93CF93DF93CDB7DEB72697CDBFDF
:10475000DEBF8C01FB0119821A821B821C821D8222
:104760001E82AE014B5F5F4FBE016F5F7F4F84853E
:104770000E94DC228BE893ECD8018D939C931197D7
:1047800052961D921C925397F801329680E1DF01F8
:104790001D928A95E9F789819A81AB81BC81F801E4
:1047A00086879787A08BB18BC8012696CDBFDEBFC9
:1047B000DF91CF911F910F910895CF93DF9300D098
:1047C000CDB7DEB78091C029811102C00E94C51DFE
:1047D00080E00E941F090E94F21E60E08FE30E94A9
:1047E0005A090E94FE0A80E00E941F090E94F21EE0
:1047F0008FEF89831A82AE014E5F5F4FBE016F5FFC
:104800007F4F8FE30E94030A0E94FE0A89810F9066
:104810000F90DF91CF910895CF92DF92EF92FF92A8
:104820000F93CF93DF93EC017B016A018C858F3F5F
:1048300039F0E881F9810488F589E02DCE010995E8
:104840000E94DD238C878F3F09F442C0F70101905D
:104850000020E9F73197BF016E197F0904E0282F86
:10486000A601C7010E94E5200E94EC026B017C01B9
:10487000E881F9810688F789E02DCE01099581113B
:1048800012C00E94EC026C197D098E099F096031EB
:1048900077428105910538F461E070E080E090E0B6
:1048A0000E94BC02E5CFE881F9810688F789E02DF6
:1048B000CE01099521E090E0811101C020E0822F16
:1048C000DF91CF910F91FF90EF90DF90CF900895FF
:1048D0006DE175EC89EE99E20E94591580E090E057
:1048E000EFCFCF92DF92EF92FF920F93CF93DF93B0
:1048F000EC017B016A018C858F3F39F0E881F981F9
:104900000488F589E02DCE0109950E94DD238C876E
:104910008F3F09F442C0F70101900020E9F7319779
:10492000BF016E197F0902E0282FA601C7010E946E
:10493000E5200E94EC026B017C01E881F981068888
:10494000F789E02DCE010995811112C00E94EC0279
:104950006C197D098E099F096031774281059105A7
:1049600038F461E070E080E090E00E94BC02E5CFA6
:10497000E881F9810688F789E02DCE01099521E0CB
:1049800090E0811101C020E0822FDF91CF910F9143
:10499000FF90EF90DF90CF9008956DE175EC89EE78
:1049A00099E20E94591580E090E0EFCF0F931F939A
:1049B000CF93DF9300D01F92CDB7DEB78B831982E0
:1049C0001A8210E000E08091C029811102C00E948B
:1049D000C51D80E00E941F090E94F21E61E08AE26C
:1049E0000E945A0941E061E0CE0103960E94A209AB
:1049F0000E94DC090E94DC090E94FE0A80E00E94FD
:104A00001F090E94F21EAE014E5F5F4FBE016F5F35
:104A10007F4F8AE20E94030A0E94FE0A8981811167
:104A20001BC00F5F1F4F64E670E080E090E00E94C3
:104A3000BC028981811103C00931110520F281E096
:104A40000931110509F480E02396CDBFDEBFDF9167
:104A5000CF911F910F91089510E000E0EACFEF92FF
:104A6000FF920F931F93CF93DF9300D000D0CDB769
:104A7000DEB78C837B018A018091C029811102C03D
:104A80000E94C51D80E00E941F090E94F21E62E084
:104A900084E40E945A0940E061E070E0CE0104968F
:104AA0000E94710941E0B801C7010E947109075FC6
:104AB0001F4FC80183709927892B29F00E94DC09B8
:104AC0000F5F1F4FF6CF0E94FE0A80E00E941F0971
:104AD0000E94F21E19821A821B82AE014D5F5F4F47
:104AE000BE016F5F7F4F84E40E944D0A0E94FE0A60
:104AF00089819A812496CDBFDEBFDF91CF911F912E
:104B00000F91FF90EF9008950F931F93CF93DF9332
:104B10008C014115510569F481E090E0F801828330
:104B20009383D0E0C0E0CE01DF91CF911F910F9130
:104B30000895FC0184810E942F25EC01892B61F3EB
:104B4000F80184810E94D624882331F3ECCFCF92E0
:104B5000DF92EF92FF920F931F93CF93DF93222365
:104B600079F06A017B018C01C5E0D0E0A601B701B4
:104B7000F80184850E942F25009721F42197B1F731
:104B800090E080E0DF91CF911F910F91FF90EF9027
:104B9000DF90CF900895CF93DF9300D01F92CDB7D1
:104BA000DEB78B838091C029811102C00E94C51D90
:104BB00080E00E941F090E94F21E61E08FE20E94C5
:104BC0005A0941E061E0CE0103960E94A2090E94C9
:104BD000DC090E94DC090E94FE0A80E00E941F0995
:104BE0000E94F21E19821A82AE014E5F5F4FBE0113
:104BF0006F5F7F4F8FE20E94030A0E94FE0A898145
:104C00002396CDBFDEBFDF91CF910895CF93DF9381
:104C1000FC0124852F3FB9F0EC010190F081E02DDB
:104C20000084F185E02D0995892B21F081E0DF9149
:104C3000CF9108958C858F3F41F48C8590E00E9440
:104C400028108FEF8C8780E0F2CF0E94CB25843034
:104C5000A0F39BEF980F933080F38A3039F7EDCFB4
:104C60000F931F93CF93DF93CDB7DEB76297CDBF7E
:104C7000DEBF8C018091F92B8F3F09F485C08091B4
:104C8000FA2B8F3F19F11B821C8248EE53E060E043
:104C900070E04D835E836F83788723E134EC298352
:104CA0003A838D8781E0888BCE0101960E9406268B
:104CB000882361F0CE0101960E94DB20892B31F020
:104CC0008091FA2B90E08F3F9105D9F58091F92BD7
:104CD0008A8B8CE10E944C022FEF892B79F1809115
:104CE000C029811102C00E94C51D80E00E941F09D9
:104CF0000E94F21E61E08BE20E945A0941E061E0ED
:104D0000CE0142960E94A2090E94DC090E94DC09A1
:104D10000E94FE0A80E00E941F090E94F21E198A6A
:104D200019821A82AE014F5E5F4FBE016F5F7F4FE7
:104D30008BE20E94030A0E94FE0A2981822F2F3FE4
:104D400019F18093FA2BF8011282138248EE53E096
:104D500060E070E044835583668377831086118614
:104D60001286138623E134EC2083318384871586F1
:104D7000168681E08787C8016296CDBFDEBFDF91CE
:104D8000CF911F910F910895F8011282138288EE3E
:104D900093E0A0E0B0E084839583A683B78383E1AA
:104DA00094EC808391838FEF8487E3CFCF93DF935D
:104DB00000D01F92CDB7DEB78B838091C0298111BF
:104DC00002C00E94C51D80E00E941F090E94F21EC1
:104DD00061E08EE20E945A0941E061E0CE01039653
:104DE0000E94A2090E94DC090E94DC090E94FE0ABE
:104DF00080E00E941F090E94F21E19821A82AE01F1
:104E00004E5F5F4FBE016F5F7F4F8EE20E94030ACD
:104E10000E94FE0A2396CDBFDEBFDF91CF91089599
:104E2000CF93DF93EC018C858F3F41F00E94D62613
:104E30008C8590E00E9428108FEF8C87DF91CF91B6
:104E400008950F931F93CF93DF93EC018C858F3FD1
:104E5000D9F00E94D62602E310E08C858F3F71F0D6
:104E60000E94CB25882351F00150110939F064E6E6
:104E700070E080E090E00E94BC02EFCF8C8590E073
:104E80000E9428108FEF8C87DF91CF911F910F9197
:104E90000895EF92FF920F931F93CF93DF938C01AE
:104EA0007B01EA01DC011C968C918F3F79F481E053
:104EB00090E0F80182839383D0E0C0E0CE01DF91DF
:104EC000CF911F910F91FF90EF900895209779F364
:104ED0000E942F25009731F5D8011F968C911F97BE
:104EE00081110CC0F80184850E94D62681E090E0F3
:104EF000D80112968D939C931397DECFED91FC9180
:104F000002A0F3A1E02D21E0AE01B701C80109958F
:104F1000EC01892B39F3F80184850E94D62488237B
:104F200031F2CCCFEC01F7CFEF92FF920F93CF93FA
:104F3000DF93CDB7DEB72897CDBFDEBF6B837C8311
:104F40008D839E837A012F8308878091C0298111E8
:104F500002C00E94C51D80E00E941F090E94F21E2F
:104F600064E08DE20E945A0940E064E0CE010396BD
:104F70000E94A209C7010E940C1040E061E0CE012E
:104F800007960E94A20941E061E0CE0108960E94C6
:104F9000A2090E94FE0A80E00E941F090E94F21EE0
:104FA00019821A82AE014E5F5F4FBE016F5F7F4F65
:104FB0008DE20E94030A0E94FE0A2896CDBFDEBF42
:104FC000DF91CF910F91FF90EF900895EF92FF92B4
:104FD0000F931F93CF93DF93EC018B017A018C85A4
:104FE0008F3F19F40E94DD238C872C8590E080E0B0
:104FF0002F3F79F0F80182899389892B89F466859E
:1050000077858089918901E0A7010E94942781E03A
:1050100090E0DF91CF911F910F91FF90EF90089555
:1050200060E070E0CB01EFCFAF92BF92CF92DF9202
:10503000EF92FF920F93CF93DF93EC017B015A0124
:105040008C858F3F39F0E881F9810488F589E02D5E
:10505000CE0109950E94DD23482F8C878F3F09F4EC
:1050600047C0F7012289338960E070E0CB01232B30
:1050700021F4668577858089918904E0242FA50134
:105080000E9494270E94EC026B017C01E881F98167
:105090000688F789E02DCE010995811112C00E9482
:1050A000EC026C197D098E099F09603177428105F8
:1050B000910538F461E070E080E090E00E94BC026D
:1050C000E5CFE881F9810688F789E02DCE010995C1
:1050D00021E090E0811101C020E0822FDF91CF918B
:1050E0000F91FF90EF90DF90CF90BF90AF90089519
:1050F0006DE175EC89EE99E20E94591580E090E02F
:10510000EDCFAF92BF92CF92DF92EF92FF920F93CB
:10511000CF93DF93EC017B015A018C858F3F39F0EF
:10512000E881F9810488F589E02DCE0109950E9476
:10513000DD23482F8C878F3F09F447C0F701228970
:10514000338960E070E0CB01232B21F466857785FD
:105150008089918902E0242FA5010E9494270E9452
:10516000EC026B017C01E881F9810688F789E02D6A
:10517000CE010995811112C00E94EC026C197D09C3
:105180008E099F09603177428105910538F461E00D
:1051900070E080E090E00E94BC02E5CFE881F981F8
:1051A0000688F789E02DCE01099521E090E0811174
:1051B00001C020E0822FDF91CF910F91FF90EF90FF
:1051C000DF90CF90BF90AF9008956DE175EC89EEC0
:1051D00099E20E94591580E090E0EDCFAF92BF9226
:1051E000CF92DF92EF92FF920F93CF93DF93EC0178
:1051F0007B015A018C858F3F39F0E881F981048861
:10520000F589E02DCE0109950E94DD23482F8C877A
:105210008F3F09F447C0F7012289338960E070E0CD
:10522000CB01232B21F4668577858089918900E065
:10523000242FA5010E9494270E94EC026B017C019F
:10524000E881F9810688F789E02DCE010995811161
:1052500012C00E94EC026C197D098E099F09603111
:1052600077428105910538F461E070E080E090E0DC
:105270000E94BC02E5CFE881F9810688F789E02D1C
:10528000CE01099521E090E0811101C020E0822F3C
:10529000DF91CF910F91FF90EF90DF90CF90BF9073
:1052A000AF9008956DE175EC89EE99E20E94591571
:1052B00080E090E0EDCF0F931F93CF93DF9300D06A
:1052C00000D0CDB7DEB78C016B834C838091C029B1
:1052D000811102C00E94C51D80E00E941F090E942A
:1052E000F21E63E088E20E945A09C8010E940C1075
:1052F00040E061E0CE0103960E94A20941E061E036
:10530000CE0104960E94A2090E94DC090E94FE0AB6
:1053100080E00E941F090E94F21E19821A82AE01CB
:105320004E5F5F4FBE016F5F7F4F88E20E94030AAE
:105330000E94FE0A2496CDBFDEBFDF91CF911F9160
:105340000F910895EF92FF921F93CF93DF93EC019B
:105350007B018C858F3F39F0E881F9810288F389E0
:10536000E02DCE0109950E94DD23182F80E01F3F1C
:1053700059F041E0612FC7010E945B291C87ED862F
:10538000FE861F86188A81E0DF91CF911F91FF90E2
:10539000EF900895CF93DF93EC010E94DD238C837F
:1053A0008F3F41F040E0682F8E819F81DF91CF9148
:1053B0000C945B29DF91CF9108950F931F93CF93A6
:1053C000DF9300D000D0CDB7DEB78C01F801278580
:1053D0003089C90101978787908B8485232B49F0F9
:1053E00041E050E0BE016F5F7F4F90E00E94F61FEA
:1053F000EDCF8C838CE10E944C02892BD9F18091F6
:10540000C029811102C00E94C51D80E00E941F09B1
:105410000E94F21E61E08BE20E945A0941E061E0C5
:10542000CE0104960E94A2090E94DC090E94DC09B8
:105430000E94FE0A80E00E941F090E94F21E1B8249
:1054400019821A82AE014D5F5F4FBE016F5F7F4FC1
:105450008BE20E94030A0E94FE0A89819A81F80168
:105460008787908B2496CDBFDEBFDF91CF911F91B0
:105470000F91089590E080E0F2CFEF92FF920F93AA
:105480001F93CF93DF9300D01F92CDB7DEB77B0180
:105490008A01FC0184858B838091C029811102C01F
:1054A0000E94C51D80E00E941F090E94F21E62E05A
:1054B00086E40E945A0940E061E070E0CE01039664
:1054C0000E94710941E0B801C7010E947109780189
:1054D000F9E0EF0EF11CC70183709927892B31F099
:1054E0000E94DC098FEFE81AF80AF5CF0E94FE0A45
:1054F00080E00E941F090E94F21E1A821982AE01EA
:105500004F5F5F4FBE016E5F7F4F86E40E944D0A82
:105510000E94FE0AC8012396CDBFDEBFDF91CF9166
:105520001F910F91FF90EF900895CF93DF9300D0DC
:105530001F92CDB7DEB7FC0184858B838091C02993
:10554000811102C00E94C51D80E00E941F090E94B7
:10555000F21E61E089E30E945A0941E061E0CE0158
:1055600003960E94A2090E94DC090E94DC090E94A5
:10557000FE0A80E00E941F090E94F21E1A82198210
:10558000AE014F5F5F4FBE016E5F7F4F89E30E94A8
:105590004D0A0E94FE0A8981882321F081E09A81C8
:1055A000913009F080E090E02396CDBFDEBFDF911F
:1055B000CF910895AF92BF92CF92DF92FF920F9357
:1055C0001F93CF93DF93CDB7DEB72897CDBFDEBF54
:1055D0008C015B016A01DC011C968C911C978F3F4A
:1055E00039F0ED91FC910288F389E02DC80109950D
:1055F0000E94DD23F82EBFEF80E0FB1609F456C0B1
:10560000F50182899389892B09F05DC0868597858C
:10561000A089B18989839A83AB83BC83F88683E0B0
:105620008D838091C029811102C00E94C51D80E038
:105630000E941F090E94F21E64E088E20E945A093B
:1056400040E064E0CE0101960E94A209C6010E94DA
:105650000C1040E061E0CE0108960E94A20941E0F2
:1056600061E0CE0105960E94A2090E94FE0A80E038
:105670000E941F090E94F21E1F821E82AE014A5F15
:105680005F4FBE01695F7F4F88E20E94030A0E945C
:10569000FE0AD8011C96FC921C971D96CD92DC92B6
:1056A0001E971F961D921C92509781E02896CDBFA1
:1056B000DEBFDF91CF911F910F91FF90DF90CF90D0
:1056C000BF90AF90089580E090E0DC01A3CFEF920F
:1056D000FF920F931F93CF93DF9300D0CDB7DEB728
:1056E0008C01DC0196968D919C910997F9F4F80153
:1056F00084859585DC01ED91FC910084F185E02D98
:105700000995892B99F0F80184859585DC01ED9147
:10571000FC910284F385E02D0995F82EBAE08B13F5
:105720003CC08AE090E0F80186A397A3D801969642
:105730008D919C9197970A9761F4D3968D919C9146
:10574000D497892B31F489E090E096968D939C93C1
:105750009797F80186A197A1099709F444C0848519
:105760009585DC01ED91FC910084F185E02D099592
:10577000F80126A137A12A30310531F423A934A933
:10578000281739070CF4C9010F900F90DF91CF91C2
:105790001F910F91FF90EF900895FDE08F1709F48E
:1057A000A6CF082E000C990B0E943E3E892B09F4CF
:1057B0009ECF19821A82F982D801D396ED90FC907F
:1057C00084E0EE0CFF1C8A95E1F740E150E070E0C8
:1057D00060E0CE0101960E945F376E0D7F1DF801DB
:1057E00063AB74AB84CF90E080E0CECF1F920F927A
:1057F0000FB60F9211242F933F934F935F936F93A4
:105800007F938F939F93AF93BF934091B42950910F
:10581000B5296091B6297091B7298091B2299091EC
:10582000B3292091B0293091B129420F531F611D36
:10583000711D2091AE293091AF29820F931F883EB0
:1058400023E0920730F0885E93404F5F5F4F6F4FC9
:105850007F4F8093B2299093B3294093B4295093FA
:10586000B5296093B6297093B7298091BC2990918E
:10587000BD29A091BE29B091BF290196A11DB11DDE
:105880008093BC299093BD29A093BE29B093BF29D2
:1058900081E08093B60ABF91AF919F918F917F91E4
:1058A0006F915F914F913F912F910F900FBE0F908D
:1058B0001F9018951F920F920FB60F9211242F93DD
:1058C0003F934F935F936F937F938F939F93AF9388
:1058D000BF93EF93FF9389EE99E20E940204FF9138
:1058E000EF91BF91AF919F918F917F916F915F9158
:1058F0004F913F912F910F900FBE0F901F901895D1
:105900001F920F920FB60F9211242F933F934F9334
:105910005F936F937F938F939F93AF93BF93EF9317
:10592000FF93E091F529F091F629818181FD2FC047
:1059300060818091FB298F5F8F739091FC2989177B
:1059400041F0E091FB29F0E0E751F64D618F809343
:10595000FB298091822A9091832A009739F0DC01FB
:10596000ED91FC910190F081E02D0995FF91EF916F
:10597000BF91AF919F918F917F916F915F914F9167
:105980003F912F910F900FBE0F901F90189580811F
:10599000EDCF1F920F920FB60F9211242F933F93CA
:1059A0004F935F936F937F938F939F93AF93BF9327
:1059B000CF93EF93FF93C091AB08C2FF0AC0109240
:1059C0004B2910924A291092492984E00E94C3066B
:1059D00014C0C6FF2FC080914829813051F48091B6
:1059E0004B29E0914629F091472990E009951092C2
:1059F0004829C0FF14C00E94D306FF91EF91CF91B8
:105A0000BF91AF919F918F917F916F915F914F91D6
:105A10003F912F910F900FBE0F901F90189580E42B
:105A20008093AB0881E00E94C3068091AB0885FF9C
:105A3000E4CFE1CFC7FF5CC0C3FF08C010924B2981
:105A400010924A291092492983E0C0CF8091A90879
:105A500080668093A9088091AB0881FF2CC080915B
:105A60004A29882349F08091AB0884FF05C082E071
:105A70008093AA0881E0AACF90914A298091492970
:105A80009817A8F4E0914A298091412990914229E0
:105A9000E80FF92FF11D80818093AD0880914A298C
:105AA0008F5F80934A2983E08093AA08A6CF82E083
:105AB0008093AA088BCF90914B2980914529981704
:105AC00090F48091AD08E0914B29209143293091C9
:105AD0004429E20FF32FF11D808380914B298F5FC2
:105AE00080934B29E0CF86E08093AA0882E06ECFB6
:105AF00085E06CCF1F920F920FB60F9211242F9357
:105B00003F938F939F93EF93FF938091A508982FD6
:105B10009C70E1F08091A50894E082FF93E090935F
:105B200056298093A50881E090E080934C299093BA
:105B30004D2910925729FF91EF919F918F913F919D
:105B40002F910F900FBE0F901F90189586FF4EC09B
:105B500020915329909152298091A50884FF15C066
:105B600080914F29882379F083E08093A40885E011
:105B7000809356291092572981E090E080934C2918
:105B800090934D29D8CF81E0F0CF80915129821791
:105B900090F4E09151298091542990915529E80F72
:105BA000F92FF11D80818093A808809151298F5F82
:105BB00080935129C0CF80915029891760F484E0E7
:105BC00090E080934C2990934D2980914E298160DB
:105BD0008093A708B0CF80914F29882329F083E0D4
:105BE0008093A40881E0C4CF81E0FACF87FF40C052
:105BF00090915029809152299817D8F48091A80843
:105C0000E091502920913F2930914029E20FF32F54
:105C1000F11D8083809150298F5F8093502990914E
:105C20005229809150298917D8F482E08093A408E2
:105C300082CF80914F29882389F087E08093A40840
:105C400082E0809356291092572981E090E080935A
:105C50004C2990934D29109252296DCF85E0EECFBB
:105C600080914F29882311F087E0BACF85E0B8CF23
:105C700086E07ECFCF93DF9383E894EC8093F02A85
:105C80009093F12A8BE29BE20E94411081E49BE217
:105C90000E944B10D0E0C0E0CE010E942810219657
:105CA000CA30D105C9F7DF91CF9108954F925F9225
:105CB0006F927F92AF92BF92CF92DF92EF92FF925C
:105CC0000F931F93CF93DF93E5EDF9E22BE833ECCD
:105CD0002083318381E090E0828B938BE7EDF9E2C2
