:020000040000FA
:100000001124669A26E030E408C000000197E9F761
:100010008DB183278DB9215019F081E091E7F6CF9A
:1000200080911F138B3E69F48FEF80931F138DE92E
:1000300093E084BF909300108091021081FDFCCF6B
:1000400006C082E080930110E0E0F1E0099580ECC9
:1000500080930608A09123110A2E000CBB0BBC5FF5
:100060002CE530E00E9476007E5F8F4F9F4F2AE0A4
:1000700095958795779567952A95D1F760930808A8
:10008000709309088091E20581608093E205049AEB
:10009000E0E0F2E42DE933E040E41EC08091040882
:1000A00087FFFCCF80910008E11552E4F50711F4B9
:1000B000882391F0809302088193CF018F7799274D
:1000C000892B51F424BF309300108091021080FDE1
:1000D000FCCF8DB184278DB9CF0190548115904C00
:1000E000E8F288ED91E084BF909341000E947D008A
:1000F000B7FF0895821B930B0895A29FB001B39F91
:10010000C001A39F700D811D1124911DB29F700D20
:08011000811D1124911D0895C9
:100200000C94FC010C9424020C9424020C942402FF
:100210000C9424020C9424020C9424020C942402C6
:100220000C9424020C9424020C9424020C942402B6
:100230000C9424020C9424020C94932B0C94442CC4
:100240000C9424020C9424020C9424020C94240296
:100250000C9424020C9424020C9424020C94240286
:100260000C9424020C9424020C9424020C94240276
:100270000C9424020C9424020C9424020C94240266
:100280000C9424020C9424020C9424020C94240256
:100290000C94C02A0C944A2B0C94242B0C9424020A
:1002A00008000000BE922449123EABAAAA2ABECD85
:1002B000CCCC4C3E00000080BEABAAAAAA3E0000F7
:1002C0000000BF000000803F0000000000084178EF
:1002D000D3BB4387D1133D190E3CC3BD4282AD2B26
:1002E0003E68EC8276BED98FE1A93E4C80EFFFBE1E
:1002F00001C4FF7F3F000000000000407A10F35A65
:1003000000A0724E18090010A5D4E80000E8764855
:10031000170000E40B54020000CA9A3B000000E101
:10032000F505000080969800000040420F00000094
:10033000A08601000000102700000000E803000074
:1003400000006400000000000A000000000001003E
:10035000000000002C76D888DC674F0823DFC1DF5F
:10036000AE59E1B1B796E5E3E453C63AE651997662
:1003700096E8E6C28426EB898C9B62ED407C6FFC9C
:10038000EFBC9C9F40F2BAA56FA5F490055A2AF7DE
:100390005C936B6CF9676DC11BFCE0E40D47FEF5E7
:1003A00020E6B500D0ED902E03009435770500804F
:1003B000841E080000204E0A000000C80C333333AE
:1003C000330F986E12831141EF8D2114893BE6554E
:1003D00016CFFEE6DB18D1844B381BF77C1D901D31
:1003E000A4BBE424203284725E228100C9F124EC93
:1003F000A1E53D277F2E352E11241FBECFEFCDBFA7
:10040000DFE3DEBF18E2A0E0B8E2E7E1F9E902C00D
:1004100005900D92A231B107D9F72CE2A2E1B8E222
:1004200001C01D92A93BB207E1F711E0CBEFD1E08B
:1004300004C02197FE010E94C443CA3FD107C9F7F7
:100440000E940C310C94E3480C940001CF93DF938D
:1004500090E0FC01EE55FD4220812F3F71F0FC0140
:10046000E758FD42A08130E2A39FD0011124BC5F78
:100470006130710529F411962C93DF91CF91089585
:10048000805B9D42EC01E881EF3F89F0CD01409611
:10049000E80FF92FF11D9FB7F89412962C938081E5
:1004A0006230710539F4886080839FBFE6CFF0E049
:1004B000E0E0F1CF877FF8CF282F30E0F901E95D48
:1004C000FD42E081EE2309F1E13021F0F0F0E63069
:1004D00098F008954091010A205B3D42F901208186
:1004E0002C5F81E090E001C0880F2A95EAF78095A3
:1004F00084238093010A089580E1E89FF00111248C
:10050000E05AF54F81818F7E81830895FF920F938A
:100510001F93CF93DF93082F10E0F801EE55FD42B3
:10052000F0809FEFF916A1F0EB01893210F40E94E0
:100530005C02F801E758FD42E08180E2E89FF001AB
:100540001124FC5F80818F2159F0CD2B39F4F68284
:10055000DF91CF911F910F91FF900895F582F8CF11
:10056000D801A05BBD428C91309771F08F3F61F054
:100570007096E80FF11D9FB7F8948081CD2B39F468
:10058000877F80839FBFE4CFF0E0E0E0F4CF886016
:10059000F8CF0F931F93CF93082F10E0F801EE557B
:1005A000FD42C081CF3FB9F0893210F40E945C0255
:1005B000F801E758FD42E08180E2E89FF001112454
:1005C000FC5F8085C82381E090E009F480E0CF9152
:1005D0001F910F91089580E090E0F9CF893210F4D7
:1005E0000C9486020895893210F40C942602089522
:1005F0008E508093060681E08093080680910B065A
:1006000080FFFCCF2FB7F8948091100690911106CF
:100610002FBF0895CF93DF938FB7F8942091B5291A
:100620003091B6294091B7295091B829E091BA0A82
:100630009091B60A90FF06C02F5F3F4F4F4F5F4F1C
:10064000E091BA0A8FBFA091B329B091B429C091AB
:10065000B129D091B2290E94A541EC9F9001ED9F54
:10066000300D1124620F731F811D911DDF91CF91F9
:1006700008958F929F92AF92BF92CF92DF92EF92A6
:10068000FF924B015C010E940A036B017C01A8EE02
:10069000B3E0A50194010E94A541C60ED71EE81E35
:1006A000F91EC616D706E806F90618F40E940A03D2
:1006B000F8CF0E940A036C157D058E059F05C8F3CF
:1006C000FF90EF90DF90CF90BF90AF909F908F9072
:1006D00008952FB7F8946091AD297091AE2980915B
:1006E000AF299091B0292FBF089521E0FC018485A6
:1006F0008F3F09F420E0822F0895DC01ED91FC91F9
:100700000190F081E02D0994DB0114964D915C91EC
:1007100015976D917C91DC01ED91FC910280F38144
:10072000E02D0994AF92BF92CF92DF92EF92FF92A9
:100730000F931F93CF93DF936C017B018B01040F09
:10074000151FEB015E01AE18BF08C017D10759F0A5
:100750006991D601ED91FC910190F081E02DC601E7
:100760000995892B79F7C501DF91CF911F910F91E1
:10077000FF90EF90DF90CF90BF90AF900895FC0175
:1007800054894589252F30E0842F90E0821B930BFC
:10079000541710F0CF96089501970895FC0192899F
:1007A0008389981761F0A389AE0FBF2FB11D5996A9
:1007B0008C9193899F5F9F73938B90E008958FEF47
:1007C0009FEF0895FC0192898389981731F08389FE
:1007D000E80FF11D818D90E008958FEF9FEF089550
:1007E000FC0192892389892F90E0805C9F4F821BB6
:1007F00091098F7399270895CF93DF93EC01E881D6
:10080000F9810680F781E02D0995EC85FD858681CB
:100810008F738683EC85FD8585818F7585838B89B4
:100820008A8B198ADF91CF910895CF92DF92EF9250
:10083000FF920F931F93CF93DF93EC016A017B012B
:10084000022F8989882339F0E881F9810288F389A8
:10085000E02DCE01099598898091E205892B80933E
:10086000E2051FB7F89460E070E281EA97E0A70123
:1008700096010E94644169017A018FEFC81AD80A73
:10088000E80AF80AF694E794D794C794EC85FD85B6
:1008900086818D7F8683EC85FD8586818683198A96
:1008A000A09123110A2E000CBB0BA70196010E94F8
:1008B000B04120E034E040E050E00E948641EC8509
:1008C000FD85C20ED31EE41EF51EC086D186EC85C2
:1008D000FD850783EC85FD858681806C8683EC85AC
:1008E000FD858581806885838E8562E070E00E9449
:1008F000F3028F8561E070E00E94EE028F8561E077
:1009000070E00E94F3021FBFDF91CF911F910F9102
:10091000FF90EF90DF90CF900895CF93DF93FC018D
:1009200094898589C485D585981306C08D818F7D6E
:100930008D83DF91CF910895A589AE0FBF2FB11D93
:10094000A75ABF4F2C91858990E001968F73992704
:10095000858B80E48C83A485B58512962C9394892D
:1009600085899813E6CFA485B58515968C91159742
:100970008F7D15968C9387898823D9F2808D8093FB
:100980001301178AD6CFDC011C96ED91FC910FB6AE
:1009900007FE03C0258125FD04C0248125FD0C949C
:1009A0008D040895EF92FF920F931F93CF93DF93DF
:1009B000EC0181E0898B9C898D8998131CC0AC85E2
:1009C000BD8514968C91149785FF15C012966C9373
:1009D000AC85BD8580E414968C93EC85FD8585817E
:1009E0008F7D858381E090E0DF91CF911F910F9102
:1009F000FF90EF9008958091110180FF08C08091D1
:100A00001301888F8E898093130181E08F8BF62EDE
:100A10000C8910E00F5F1F4F0F731127E02E8D8997
:100A20008E1104C0CE010E94C304F9CFEC89EC0FF3
:100A3000FD2FF11DE75AFF4FF0820C8BEC85FD85F1
:100A400085818062CECFCF93DF93FC012189222361
:100A5000C9F0EC018091110180FF08C08091130161
:100A6000808F86898093130181E0878BEC85FD85DB
:100A7000858185FD03C0848186FD04C0CE010E946E
:100A8000C304F4CFDF91CF91089581E008950895D4
:100A9000EF92FF920F931F93CF93DF937C01EB01B3
:100AA0008B01040F151FC017D10759F0D701ED9125
:100AB000FC910480F581E02D6881C7010995899337
:100AC000F2CFDF91CF911F910F91FF90EF9008959A
:100AD0000F931F93CF93DF93EC018B018091C0089C
:100AE000E881F9810480F581E02D86FD13C0612F36
:100AF000CE010995182FE881F9810480F581E02D58
:100B0000602FCE010995082FC801DF91CF911F9169
:100B10000F910895CE010995082FE881F98104808D
:100B2000F581E02D612FCE010995182FEDCF000042
:100B30006093C4088091C30887FFFCCF8091C408EC
:100B400008958F929F92AF92BF92CF92DF92EF92D1
:100B5000FF920F931F93CF93DF93FC01808588232F
:100B600019F081FF0EC07894DF91CF911F910F9102
:100B7000FF90EF90DF90CF90BF90AF909F908F90BD
:100B8000089580FFF1CF82849384A484B584C12C1E
:100B9000D12C760110E09401A501B601C701A0E0B7
:100BA0000E94F94399F1217030E040E050E060E0AC
:100BB00070E080E090E00E94F943D9F0D0E0C0E01E
:100BC000103370F4C12FC695C695C69580E2C89FB4
:100BD000E0011124C05FDB4F812F8770C80FD11D4A
:100BE000CF01810F911DDC0152968C919881892B48
:100BF00088839401A501B601C70101E00E94CC439E
:100C000049015A016B017C011F5FC5CF868497841F
:100C1000A088B188C12CD12C760110E29401A501E5
:100C2000B601C701A0E00E94F94309F49DCF2170ED
:100C300030E040E050E060E070E080E090E00E9452
:100C4000F943D9F0D0E0C0E0103370F4C12FC6955D
:100C5000C695C695B0E2CB9FE0011124C05FDB4F83
:100C6000812F8770C80FD11DCF01810F911DDC012D
:100C700052968C919881892B88839401A501B601A5
:100C8000C70101E00E94CC4349015A016B017C017C
:100C90001F5FC4CFFC016F3F710581F1808581FD2D
:100CA0002DC0603271055CF581E090E002C0880FD4
:100CB000991F6A95E2F780959095092E000CAA0B72
:100CC000BB0B428553856485758584239523A623B4
:100CD000B72382879387A487B58782859385A48568
:100CE000B585892B8A2B8B2B49F486859785A0891E
:100CF000B189892B8A2B8B2B09F4108608956052B9
:100D0000710981E090E002C0880F991F6A95E2F7AF
:100D100080959095092E000CAA0BBB0B4685578534
:100D20006089718984239523A623B72386879787B3
:100D3000A08BB18BD2CFFC016F3F7105E9F160331D
:100D400071051CF082E0808708958085816080872E
:100D500060327105C4F481E090E002C0880F991FF1
:100D60006A95E2F7092E000CAA0BBB0B428553854E
:100D700064857585842B952BA62BB72B828793874B
:100D8000A487B58708956052710981E090E002C0A0
:100D9000880F991F6A95E2F7092E000CAA0BBB0B6E
:100DA0004685578560897189842B952BA62BB72B97
:100DB00086879787A08BB18B0895E0ECF8E02081BF
:100DC0002E7F2083FC0117820895E0ECF8E08281F9
:100DD0008E7F82830895E0ECF8E0828181608283D7
:100DE00008950F9391E090934B2910924A296093B4
:100DF0004829709349294093472920934629109206
:100E000045291092442900934329880F8093422951
:100E100023E030E044E050E080914729882341F00E
:100E20002093402930934129809142298E7F0BC025
:100E300080914629882351F04093402950934129BD
:100E40008091422981608093A70808C0809147293A
:100E5000811104C080914629882311F380914A2989
:100E60008823E1F380914A298330B1F280914629A9
:100E7000882321F0809144290F91089580914A2977
:100E8000823031F0853031F0813031F480E0F4CFC0
:100E900081E0F2CF83E0F0CF84E0EECFE0EAF8E04B
:100EA00091859066918722E030E02093402930932D
:100EB00041298093322910923129089581E080934D
:100EC00031291092322993E09093AA089091AB08AF
:100ED00091FF10C010923E29E0912F29F091302906
:100EE000099580933D2985E090E080934029909377
:100EF0004129089510923F2980933C2986E090E093
:100F0000F4CF8F929F92AF92BF92CF92DF92EF92E7
:100F1000FF92CF93DF9360342DE0720723E08207C6
:100F2000910508F454C0611525E372072CE082078F
:100F3000910508F445C060387F448241910508F06E
:100F400046C0C8E7D0E020E432E44FE050E08090B3
:100F5000072890900828A0900928B0900A28C50179
:100F6000B4010E94644169017A018AE0C81AD1087B
:100F7000E108F108C501B40120E432E44FE050E09B
:100F80000E946441DE010E94A54128EE33E040E06A
:100F900050E00E946441C21AD30AE40AF50AF694AA
:100FA000E794D794C794C092A608DF91CF91FF90A1
:100FB000EF90DF90CF90BF90AF909F908F9008956B
:100FC000CCE2D1E020E83AE146E050E0C0CFC8EE04
:100FD000D3E020EA36E841E050E0B9CF60932D2914
:100FE00070932E29089560932B2970932C290895CE
:100FF000E0912D29F0912E29309741F010922A2965
:1010000010922929099580912929089580E0089551
:10101000E0912B29F0912C29309759F03091282913
:1010200020912729321728F0109228298093272908
:10103000099408950895E091282980912729E817B7
:1010400030F4F0E0E955F74D808190E008958FEF9E
:101050009FEF089590912829809127292FEF3FEF46
:10106000981748F4E92FF0E0E955F74D208130E07A
:101070009F5F90932829C901089580912729909115
:101080002829891B990B0895CF92DF92EF92FF9246
:101090000F931F93CF93DF937C018A01EB016B01C8
:1010A000C40ED51ECC15DD0551F06991D701ED9127
:1010B000FC910190F081E02DC7010995F3CFC801A3
:1010C000DF91CF911F910F91FF90EF90DF90CF9024
:1010D00008952091292927FF08C021E030E0FC0174
:1010E0002283338390E080E0089580912A29E82FBD
:1010F000F0E0E95DF74D60838F5F80932A2980934C
:10110000292981E090E00895DC01ED91FC91008CAB
:10111000F18DE02D61E009940F9380914029909129
:1011200041290197A1F480914B29811112C0062F0A
:1011300020E04091292967E278E2809126280E94E8
:10114000F10610922A29109229290F91089580E022
:10115000F8CF81E0F6CF6093262810922A291092CA
:1011600029290895CF93DF93EC016EE387EC9AE28F
:101170000E94AB08688187EC9AE20E946908698145
:1011800087EC9AE20E94690887EC9AE2DF91CF919E
:101190000C948408CF93DF93D82FC62F62E687EC98
:1011A0009AE20E94AB086D2F87EC9AE20E946908D0
:1011B0006C2F87EC9AE20E94690887EC9AE2DF9133
:1011C000CF910C948408CF93DF93D62FC42F682F30
:1011D00084E00E94CA086D2F83E00E94CA086C2F29
:1011E00082E0DF91CF910C94CA08DC01ED91FC9173
:1011F000048CF58DE02D21E009940F9387EA98E2A5
:1012000080933329909334298091402990914129EA
:101210000197C9F480914B29811117C0FA01413817
:10122000510510F0E0E8F0E0022F862F2E2F40E06D
:1012300070E060E00E94F10610922829809327292F
:1012400090E00F91089580E0F7CF81E0F5CFCB01DA
:10125000BA010C948107E0EAF8E01382168281E07B
:101260008583148611861092402910924129089591
:10127000109228291092272910922A2910922929A0
:101280008091402990914129892BD9F482E090E006
:10129000809340299093412910923F2910923E2932
:1012A00010923129109232291092252810923C294F
:1012B000660F6093AC0881EE8093A90881E080936B
:1012C000A30888EF97E080932F299093302987E235
:1012D00098E2809335299093362988E098E08093AE
:1012E0003A2990933B2987EA98E280933729909393
:1012F000382980E88093392908951092282910927E
:10130000272910922A291092292980914029909109
:101310004129892BF1F48091E3058093E30581E075
:1013200090E0809340299093412910924429109293
:10133000452910924B2910924A2981EC8093A308E9
:1013400060EA76E881E090E00E94810781E0809386
:10135000A5080895CF92DF92EF92FF92CF93C82F06
:101360000E9469036B017C01809106288932C8F4D0
:101370000E94C902892BA9F0CC23B1F30E94690312
:101380006C197D098E099F096031774281059105AD
:1013900058F7E091D72AF091D82A309729F3099588
:1013A000E3CFCF91FF90EF90DF90CF900895CF9350
:1013B000DF931F92CDB7DEB7898369818DE79AE20B
:1013C0000F90DF91CF910C949705CF93DF93D82F97
:1013D000C62F80EE0E94D7098D2F0E94D7098C2F2F
:1013E0000E94D709C11105C08EEEDF91CF910C94F8
:1013F000D709DF91CF910895DF92EF92FF920F937B
:101400001F93CF93DF93D82EE92E8B01F42E812FDB
:101410000E94D709802F0E94D709CD2DDE2D0C0FF9
:101420001D1FC017D10721F089910E94D709F9CF5C
:1014300081E0F8120AC08EEEDF91CF911F910F91DB
:10144000FF90EF90DF900C94D709DF91CF911F911F
:101450000F91FF90EF90DF900895DF92EF92FF924F
:101460000F931F93CF93DF937C01C62FD42E862F2B
:101470000E94D7098701D0E0C8018E199F098C17F7
:101480009D0734F4F80181918F010E94D709F4CFB0
:10149000F1E0DF120AC08EEEDF91CF911F910F9124
:1014A000FF90EF90DF900C94D709DF91CF911F91BF
:1014B0000F91FF90EF90DF900895CF93DF93EC01B1
:1014C0008FEF0E94D7098883DF91CF910895CF9342
:1014D000DF931F92CDB7DEB71982CE0101960E942D
:1014E0005D0A89810F90DF91CF910895CF93DF93AB
:1014F000C9EED3E00E94670A8F3E69F0219711F090
:10150000803EC1F721E090E0803E09F020E0822F8C
:10151000DF91CF9108958FEF9FEFFACFCF92DF92B7
:10152000EF92FF920F931F93CF93DF931F92CDB74C
:10153000DEB7182F6B017A0119820E94760A892B77
:1015400061F490E080E00F90DF91CF911F910F91B7
:10155000FF90EF90DF90CF900895CE0101960E940A
:101560005D0A106889811813ECCFCE0101960E94A4
:101570005D0A8981813029F78FEF0E94D709F70131
:10158000808310E000E0F70180818017110649F0A8
:1015900044F0C601800F911F0E945D0A0F5F1F4F2C
:1015A000F2CFCE0101960E945D0A81E090E0CBCFA0
:1015B000CF92DF92EF92FF920F931F93CF93DF931F
:1015C0001F92CDB7DEB7182F7B016A0119820E94E6
:1015D000760A892B61F490E080E00F90DF91CF9143
:1015E0001F910F91FF90EF90DF90CF900895CE0163
:1015F00001960E945D0A106889811813ECCF0E9441
:10160000670A8823B1F08FEF0E94D709F601808323
:101610008701F6012081C8018E199F092817190634
:1016200041F03CF08FEF0E94D709F80181938F01C0
:10163000F0CFCE0101960E945D0A81E090E0CDCF0F
:101640006F927F928F929F92AF92BF92CF92DF92D2
:10165000EF92FF920F931F93CF93DF931F92CDB71B
:10166000DEB7182F662E7A0119820E94760A892B1E
:1016700091F490E080E00F90DF91CF911F910F9156
:10168000FF90EF90DF90CF90BF90AF909F908F90A2
:101690007F906F900895CE0101960E945D0A1068B8
:1016A00089811813E6CF0E94670A782E882309F3F0
:1016B0008701D12CC12C882E912CC814D90404F593
:1016C0008FEF0E94D709F8018083F12CE12CF801FB
:1016D00080818E151F0471F06CF0A180B280AE0C79
:1016E000BF1C8FEF0E94D709F5018083FFEFEF1A2F
:1016F000FF0AEDCF8FEFC81AD80A0D5F1F4FDDCF5D
:101700007610B7CFCE0101960E945D0A81E090E08D
:10171000B2CF61E070E0809105280E94EE028DE773
:101720009AE20C94A105CF93DF931F92CDB7DEB759
:101730006983DC01ED91FC910280F381E02D41E0B1
:1017400050E0BE016F5F7F4F09950F90DF91CF9101
:101750000895FC01878590890895DC01ED91FC9145
:10176000048CF58DE02D0994CF93DF931F92CDB7B4
:10177000DEB76983DC01ED91FC910280F381E02DFD
:1017800041E050E0BE016F5F7F4F09950F90DF9100
:10179000CF910895FC0167870895CF93DF931F923F
:1017A000CDB7DEB76983DC01ED91FC910280F38156
:1017B000E02D41E050E0BE016F5F7F4F09950F9033
:1017C000DF91CF910895CF93DF9300D0CDB7DEB7EF
:1017D00090E899838A83CE0101960E94B2080F9007
:1017E0000F90DF91CF910895CF93DF9300D0CDB7C5
:1017F000DEB780E489836A83CE0101960E94B20835
:1018000081E090E00F900F90DF91CF9108950895BF
:10181000DC011C968D919C91DC01ED91FC91028084
:10182000F381E02D0994DC011C968D919C91DC01E3
:10183000ED91FC910084F185E02D0994DC011C966A
:101840008D919C91DC01ED91FC910688F789E02D4A
:101850000994CF93DF93EC01CF59DF4F4881598131
:10186000FC01E15AFF4F608171810E94080C21E068
:1018700030E0488159814817590711F030E020E0E5
:1018800018821982C901DF91CF91089581E00895EE
:10189000CF93DF93EC010E941E0C882321F08FA5CB
:1018A000DF91CF91089580E0FBCFDC01D2962D919E
:1018B0003C91D3972630310551F41C968D919C9123
:1018C000DC01ED91FC910484F585E02D09948FEF06
:1018D0009FEF0895CF93DF931F92CDB7DEB7DC0162
:1018E000ED91FC910288F389E02D41E050E0BE01CA
:1018F0006F5F7F4F0995019731F4898190E00F90D8
:10190000DF91CF9108958FEF9FEFF9CFFC0122A9CE
:1019100033A92630310519F486A997A9089590E0D6
:1019200080E00895CF93DF931F92CDB7DEB7698330
:10193000DC01ED91FC910280F381E02D41E050E06B
:10194000BE016F5F7F4F09950F90DF91CF91089592
:101950000F931F93609300287093012880930228AF
:1019600090930328009158291091592920915A29C0
:1019700030915B29DC01CB01800F911FA21FB31FA7
:101980008093542990935529A0935629B0935729B1
:101990001F910F9108950F931F930E9469038B016C
:1019A0009C0140912028509121286091222870911B
:1019B00023288091582990915929A0915A29B091B2
:1019C0005B29041B150B260B370B083E1340210522
:1019D0003105C0F00196A11DB11D80935829909347
:1019E0005929A0935A29B0935B2948515C4F6F4FF6
:1019F0007F4F409320285093212860932228709392
:101A00002328CBCF409154295091552960915629D4
:101A10007091572984179507A607B707D0F1E09171
:101A20005C29F0915D293097A1F10995AB01BC01CA
:101A30008091002890910128A0910228B09103285C
:101A4000411551056105710579F14093582950936D
:101A5000592960935A2970935B29840F951FA61FFB
:101A6000B71F8093542990935529A0935629B0937A
:101A7000572982E090E080935E2990935F290E942D
:101A800069036093202870932128809322289093E3
:101A90002328609158297091592980915A29909151
:101AA0005B291F910F910895409158295091592910
:101AB00060915A2970915B29840F951FA61FB71F4B
:101AC0008093542990935529A0935629B093572970
:101AD00081E090E020915E2930915F29232B11F461
:101AE00090E080E080935E2990935F29D2CF4F925F
:101AF0005F926F927F928F929F92AF92BF92CF929E
:101B0000DF92EF92FF920F931F93CF93DF934B01DE
:101B10005C0180911C2890911D28A0911E28B091F5
:101B20001F2888159905AA05BB0509F4C6C08CE3D2
:101B3000C82ED12CE12CF12CC501A70196010E94E1
:101B4000644160938C29CA01B901A70196010E94E2
:101B5000644160938D29C501B40120E13EE040E07D
:101B600050E00E946441CA01B90128E130E040E040
:101B700050E00E94644160938E29C501B40120E8C1
:101B800031E541E050E00E94644169017A01CA01F7
:101B9000B9016C5F7F4F8F4F9F4F27E030E040E0EF
:101BA00050E00E9464416F5F60938F29412C512C5B
:101BB000320140E004E610E0C0E9D1E0242F30E03B
:101BC0002E54384FF901E370FF273097F9F4C9011B
:101BD000B8010E94B043892B31F4C901BE010E94B3
:101BE000B043892B99F48EE691E0A0E0B0E0480E76
:101BF000591E6A1E7B1ED301C201AA27BB27C81625
:101C0000D906EA06FB0638F04F5FD8CF8DE691E0A3
:101C1000A0E0B0E0ECCF40939229C90164E670E007
:101C20000E94B043EC01C90160E971E00E94B04339
:101C3000309721F42097D9F40097C9F04DE651E090
:101C400060E070E0441A550A660A770AC418D5089D
:101C5000E608F708A0EEB1ED20E0213069F43097F6
:101C6000E9F5209711F40097C9F54DE106C04EE65D
:101C700051E060E070E0E6CF4C9150E070E060E051
:101C800031E0320FC416D506E606F70640F0C41A56
:101C9000D50AE60AF70A1196232F3C30F1F62F5F9A
:101CA00020939129C394C092902980921C289092ED
:101CB0001D28A0921E28B0921F28DF91CF911F915E
:101CC0000F91FF90EF90DF90CF90BF90AF909F90DB
:101CD0008F907F906F905F904F9008954CE1CDCFA3
:101CE000089590E080E00895DC01ED91FC9100887A
:101CF000F189E02D23E030E00994CF93DF93EC01EC
:101D000082E00E94D7098D2F0E94D7098C2FDF9186
:101D1000CF910C94D7092FEC32EDFC012083318355
:101D2000128A138A029620E1FC0111922A95E9F7A2
:101D30000895CF93DF9326E0289FE001299FD00DDF
:101D40001124C758D34D88819981009741F00E9492
:101D5000A1441A821B82188219821C821D82DF9183
:101D6000CF910895CF93DF93EC01888199810097FB
:101D700011F00E94A144188219821C821D821A82CD
:101D80001B82DF91CF910895FC01808191810097A2
:101D900011F00C94A14408950C94A1440C94A14416
:101DA0000F931F93CF93DF93EC0185E393ED88832B
:101DB00099838E0104591F4FF8018081918100970A
:101DC00029F00E94A144F801108211828E010C5961
:101DD0001F4FF80180819181009729F00E94A14452
:101DE000F80110821182CE018C5A9F4F0E94C40EBE
:101DF000CE01CE960E94C40ECE014C960E94C40E17
:101E0000CE0146960E94C40ECE014096DF91CF913E
:101E10001F910F910C94C40ECF93DF93EC010E949D
:101E2000D00ECE01DF91CF910C94A1440F931F935C
:101E3000CF93DF938A01FC01E15AFF4FEC01CF59A8
:101E4000DF4F2081318188819981820F931F0E9409
:101E5000F94588819981800F911F88839983C801F2
:101E6000DF91CF911F910F910895CF93DF9300D011
:101E7000CDB7DEB776276727762769837A8342E076
:101E800050E0BE016F5F7F4F0E94160F0F900F90C2
:101E9000DF91CF910895CF92DF92EF92FF920F934F
:101EA0001F93CF93DF93EC016B018A01BA010E946B
:101EB000350F7C01A801B601CE010E94160F8E0DD0
:101EC0009F1DDF91CF911F910F91FF90EF90DF90B9
:101ED000CF900895CF92DF92EF92FF920F931F93CE
:101EE000CF93DF931F92CDB7DEB779016C012FE559
:101EF000C20ED11CD6010D931C938C010F591F4F9C
:101F0000F80110821182F0E16F9FB0011124462B7D
:101F1000498341E050E0BE016F5F7F4F0E94160F82
:101F20008E2D8F77EE0CEF2CEE1CFF08F194E11450
:101F3000F10409F08068D601ED91FC91D8012D9152
:101F40003C911197A9014F5F5F4F4D935C9311979F
:101F5000E20FF31F8083E114F10411F78D919C913E
:101F60000F90DF91CF911F910F91FF90EF90DF9035
:101F7000CF900895CF92DF92EF92FF920F931F932D
:101F8000CF93DF93CDB7DEB7BC01CDB6DEB690916F
:101F9000B92B933008F05CC0E090B62BF090B72BD3
:101FA0009701911144C02E5F3F4FA9014B5F5F4FD6
:101FB000EDB7FEB7E41BF50BEDBFFEBF0DB71EB7C7
:101FC0000F5F1F4F4091B82B992311F0990F492BA8
:101FD0008091BA2B81114860260F371F63E08EE590
:101FE0009BE20E946A0F6091B22B7091B32BA70104
:101FF0008EE59BE20E944B0F8091B92B882341F024
:102000006091BB2B7091BC2B8EE59BE20E94350F3B
:102010008EE59BE20E94290CCDBEDEBEDF91CF9102
:102020001F910F91FF90EF90DF90CF9008952C5F5C
:102030003F4F4091BB2B5091BC2B4F5F5F4F29F01E
:102040004093BB2B5093BC2BB0CF41E050E0F8CF76
:1020500090E080E0E1CFCF92DF92EF92FF920F937A
:102060001F93CF93DF9300D000D0CDB7DEB77C01B4
:10207000FC01E95BFF4F8081813001F53296C08021
:10208000D1808E010F5F1F4F22E030E040E064E01E
:10209000C7010E946A0FB601C7010E94350FC70130
:1020A0000E94290C2496CDBFDEBFDF91CF911F91F6
:1020B0000F91FF90EF90DF90CF900895823091F7CD
:1020C000F701E75BFF4FC080D1808E010F5F1F4F8C
:1020D00022E030E040E065E0DBCF8F929F92AF924C
:1020E000BF92CF92DF92EF92FF920F931F93CF9305
:1020F000DF93DC01D2962D913C912630310581F0A1
:1021000010E000E0C801DF91CF911F910F91FF9087
:10211000EF90DF90CF90BF90AF909F908F900895F9
:102120008A015B01EC01E881F9810084F185E02DF1
:1021300009956C010817190708F46801750110E08A
:1021400000E00C151D05A9F00E9469034B015C011C
:10215000CE010E94130C892BF1F08C859D85DC014A
:10216000ED91FC910284F385E02D09958F3F98074E
:1021700019F50115110521F28EA99FA9801B910B5C
:102180008EAB9FAB892B09F0BDCFCE010E942B10E7
:102190001AAA1BAAB7CFCE010E941E0C882349F3AE
:1021A0000E946903681979098A099B09683E73408E
:1021B0008105910568F2DDCF0F5F1F4FD7018D9329
:1021C0007D01BFCFEF92FF920F931F93CF93DF93C9
:1021D00000D0CDB7DEB77C01DC01ED91FC91068823
:1021E000F789E02D0995882369F08E010F5F1F4F55
:1021F00030E020E040E06EE0C7010E946A0FC701B6
:102200000E94290CF70117A684859585DC01ED91C4
:10221000FC910488F589E02D09950F900F90DF91CE
:10222000CF911F910F91FF90EF900895AF92BF92C1
:10223000CF92DF92EF92FF920F931F93CF93DF9392
:102240005B018A01FC01E059FF4F20813181232B82
:1022500061F0DF91CF911F910F91FF90EF90DF9090
:10226000CF90BF90AF900C94160FFC01ED59FF4F2B
:102270002081222361F0DF91CF911F910F91FF9078
:10228000EF90DF90CF90BF90AF900C94080C7C0142
:1022900026E6E20EF11CF701C080D180FC0123A5E7
:1022A00034A54C0D5D1D4217530718F089010C1918
:1022B0001D09EC01CC59DF4F88819981892B29F4C4
:1022C000C9010E9405448883998388819981A80166
:1022D000B5018C0D9D1D0E94F945F701808191810A
:1022E000800F911F80839183C801DF91CF911F914F
:1022F0000F91FF90EF90DF90CF90BF90AF90089537
:10230000CF92DF92EF92FF920F93FC01C12CB9E0C4
:10231000DB2EBDE3EB2EF12CC082D182E282F38270
:102320001482158281E090E086839783C09007280D
:10233000D0900828E0900928F0900A28F694E794B5
:10234000D794C79490E04C155D056E057F0540F469
:10235000F694E794D794C7949F5F9630A1F797E0DF
:1023600004600187892F8095A82FA170B0E084E0D8
:10237000AA0FBB1F8A95E1F791629A2B80E0232B6D
:1023800009F480E4982B90870F91FF90EF90DF90F5
:10239000CF9008950F931F93CF93DF93CDB7DEB700
:1023A0002A97CDBFDEBF8C01FC01878181110CC053
:1023B0001086118612861386148615861686178651
:1023C000108A118A81E087838091E305F801968164
:1023D000892B8093E30561E070E083810E94F30222
:1023E00061E070E0F80184810E94F3028091C108ED
:1023F00084608093C1088091C00881628093C00886
:102400004091BF2A5091C02A6091C12A7091C22A7E
:102410000091C32A2091C52A3091C62ACE01019687
:102420000E94801199858A859093C0088093C10885
:102430002A96CDBFDEBFDF91CF911F910F910895F6
:10244000CF9383E28093052884E280930628C1E03D
:10245000C09324288DE18093042861E070E083E23A
:102460000E94260270E060E084E20E94F30261E0D4
:1024700070E08DE10E94F30261E070E08CE10E9467
:10248000260261E070E08CE10E94860261E070E06B
:1024900083E20E94EE0261E070E08DE10E94EE02B4
:1024A0006AE070E080E090E00E94390370E060E054
:1024B0008DE10E94EE026EEE72E080E090E00E94FC
:1024C000390370E060E08CE10E94860270E060E019
:1024D0008CE10E9426028DE79AE20E94CA11C09305
:1024E000B929CF9108955F926F927F928F929F92B8
:1024F000AF92BF92CF92DF92EF92FF920F931F9312
:10250000CF93DF93CDB7DEB76297CDBFDEBF3C017F
:102510000B871C872D873E87042F4F87588B698B2D
:102520007A8B29893A894B855C856D857E85CE01BC
:1025300001960E94801159841A85D30118968C91B6
:10254000882319F081FF18C0F8945092C0081093A6
:10255000C1086296CDBFDEBFDF91CF911F910F9171
:10256000FF90EF90DF90CF90BF90AF909F908F90B3
:102570007F906F905F90089580FFE7CFF301828492
:102580009384A484B584C12CD12C7601B0E094014D
:10259000A501B601C701A0E00E94F943A9F121708D
:1025A00030E040E050E060E070E080E090E00E94C9
:1025B000F943E9F090E080E0B03370F48B2F86951A
:1025C00086958695F0E28F9FC0011124805F9B4F16
:1025D0002B2F2770820F911DFC01408193012B0F3F
:1025E000311DF901428BFC012081287F2083940159
:1025F000A501B601C70101E00E94CC4349015A017F
:102600006B017C01BF5FC3CFD3011E968D909D905F
:10261000AD90BC905197C12CD12C7601B0E29401C1
:10262000A501B601C701A0E00E94F94309F48DCFCE
:10263000217030E040E050E060E070E080E090E049
:102640000E94F943E9F090E080E0B03370F48B2F02
:10265000869586958695E0E28E9FC0011124805F65
:102660009B4F2B2F2770820F911DFC0140819301FE
:102670002B0F311DF901428BFC012081287F208323
:102680009401A501B601C70101E00E94CC434901B4
:102690005A016B017C01BF5FC2CFCF92DF92EF92F4
:1026A000FF920F931F93CF93DF93CDB7DEB7289799
:1026B000CDBFDEBF80E0082F1D821E8281E0682F23
:1026C00012E12AE730E040E05E8170E08DE79AE2B7
:1026D0000E94731270E060E0809105280E94EE0273
:1026E0000E9469036B017C01809106288932B8F051
:1026F0000E9469036C197D098E099F096530710577
:102700008105910588F32896CDBFDEBFDF91CF917B
:102710001F910F91FF90EF90DF90CF9008950E944E
:10272000C902019781F3E4CFCF92DF92EF92FF923B
:102730000F931F93CF93DF9300D000D0CDB7DEB7B8
:102740007C0186E08E9D80018F9D100D112407581D
:10275000134DF80184819581892B09F08CC080810B
:102760009181892B59F480E490E00E940544F8019E
:1027700082839383808391831482158280E490E026
:1027800089839A8386E08E9DF0018F9DF00D112440
:10279000E758F34DC080D180EC828CE10E94C902E1
:1027A000892B09F468C08091B929811102C00E9467
:1027B000201280E00E94AA090E944D1362E085E485
:1027C0000E94E50940E061E070E0CE0104960E94BD
:1027D000FC0941E062E070E0CE0101960E94FC0934
:1027E0000E94670A0E94890B80E00E94AA090E9449
:1027F0004D131B820E94760A892B49F1CE01039664
:102800000E945D0A8B81853C11F50E94670A88232E
:10281000D1F08FEF0E94D709182F8FEF0E94D709B0
:10282000912F89839A83860129813A81C8018C1965
:102830009D098217930738F48FEF0E94D709F8019A
:1028400081938F01F1CFCE0103960E945D0A0E9411
:10285000890B89819A81009771F026E02E9DF00105
:102860002F9DF00D1124E758F34D208131812283F3
:1028700033838483958386E08E9DF0018F9DF00DD8
:102880001124E758F34D848195812496CDBFDEBF96
:10289000DF91CF911F910F91FF90EF90DF90CF903C
:1028A0000895CF92DF92EF92FF920F931F93CF93F1
:1028B000DF937C016B018A010E9494130097F9F069
:1028C000801791070CF48C0186E08E9DE0018F9DAE
:1028D000D00D1124C758D34D6A817B81A801C60150
:1028E0000E94F9458A819B81800F911F8A839B8377
:1028F0008C819D81801B910B8C839D83C801DF910E
:10290000CF911F910F91FF90EF90DF90CF9008959E
:10291000CF93DF93FC0127853089121613068CF4C0
:10292000EC01848590E00E9451141816190634F4C5
:102930002F853889281B390B2F87388BDF91CF9152
:10294000089590E080E0FACF0F931F93CF93DF9329
:102950001F92CDB7DEB7FC0127853089121613060A
:10296000C4F48C01848541E050E0BE016F5F7F4F6D
:1029700090E00E945114F80187859089019787871C
:10298000908B898190E00F90DF91CF911F910F91F3
:1029900008958FEF9FEFF7CFFC01848590E00C94B2
:1029A00051140F931F93CF93DF931F92CDB7DEB7D0
:1029B0008C01DC01ED91FC910084F185E02D0995FD
:1029C000892B91F0F801848541E050E0BE016F5FF2
:1029D0007F4F90E00E945114898190E00F90DF9129
:1029E000CF911F910F9108958FEF9FEFF7CFCF9366
:1029F000DF93FC0127853089121613062CF08FEF28
:102A00009FEFDF91CF910895C485D0E0CE010E9461
:102A10009413892BA1F386E08C9FF0018D9FF00D1C
:102A20001124E758F34D0280F381E02D808190E07E
:102A3000E8CFCF93DF93FC01C485D0E0CE010E94A4
:102A40009413892B81F086E08C9FF0018D9FF00D0F
:102A50001124E758F34D0280F381E02D808190E04E
:102A6000DF91CF9108958FEF9FEFFACFFC0184851E
:102A70008F3F19F090E00C94941390E080E008955B
:102A8000CF92DF92EF92FF920F931F93CF93DF933A
:102A9000CDB7DEB72897CDBFDEBF6C01162F7A0108
:102AA0002F83088719821A821B821C828091B92980
:102AB000811102C00E94201280E00E94AA090E9497
:102AC0004D1365E08DE20E94E50940E0612FC601EB
:102AD0000E942D0A40E064E0CE0101960E942D0A7A
:102AE000C7010E947D0E40E061E0CE0107960E9482
:102AF0002D0A41E061E0CE0108960E942D0A012FC7
:102B000010E0C8014196837099270F5F1F4F892BF2
:102B100019F00E94670AF5CF0E94890B81E0988521
:102B2000943009F080E00E94AA090E944D131E8291
:102B30001D82AE014B5F5F4FBE016A5F7F4F8DE22A
:102B40000E948E0A0E94890B2896CDBFDEBFDF91BE
:102B5000CF911F910F91FF90EF90DF90CF9008954C
:102B6000CF93DF9300D0CDB7DEB78091B929811123
:102B700002C00E94201280E00E94AA090E944D1308
:102B800060E080E20E94E5090E94890B80E00E94DB
:102B9000AA090E944D138FEF89831A82AE014E5FFE
:102BA0005F4FBE016F5F7F4F80E20E948E0A0E94DE
:102BB000890B89810F900F90DF91CF910895CF936A
:102BC000DF93CDB7DEB72797CDBFDEBF8F831982E6
:102BD0001A821B821C826A837B834D835E83809171
:102BE000B929811102C00E94201280E00E94AA0926
:102BF0000E944D1361E08AE30E94E50941E061E033
:102C0000CE0107960E942D0A0E94670A0E94670A59
:102C10000E94890B80E00E94AA090E944D13AE0118
:102C20004F5F5F4F62E08AE30E94200B0E94890B96
:102C30002796CDBFDEBFDF91CF910895CF93DF936D
:102C4000CDB7DEB72697CDBFDEBF19821A821B82B1
:102C50001C821D821E82AE014B5F5F4FBE016F5F03
:102C60007F4FFC0184850E94DF158D8190E0982FB5
:102C700088272E81820F911D2696CDBFDEBFDF9162
:102C8000CF9108950F931F93CF93DF93CDB7DEB706
:102C90002697CDBFDEBF8C01FB0119821A821B82F1
:102CA0001C821D821E82AE014B5F5F4FBE016F5FB3
:102CB0007F4F84850E94DF158FEC92EDD8018D93B4
:102CC0009C93119752961D921C925397F80132963D
:102CD00080E1DF011D928A95E9F789819A81AB81B4
:102CE000BC81F80186879787A08BB18BC801269697
:102CF000CDBFDEBFDF91CF911F910F910895CF938C
:102D0000DF93CDB7DEB72697CDBFDEBF19821A821B
:102D10001B821C821D821E82AE014B5F5F4FBE0173
:102D20006F5F7F4FFC0184850E94DF158D8190E0ED
:102D3000982F88272E81820F911D2696CDBFDEBF4A
:102D4000DF91CF9108950F931F93CF93DF93CDB76A
:102D5000DEB72697CDBFDEBF8C01FB0119821A8238
:102D60001B821C821D821E82AE014B5F5F4FBE0123
:102D70006F5F7F4F84850E94DF158FEC92EDD80145
:102D80008D939C93119752961D921C925397F80124
:102D9000329680E1DF011D928A95E9F789819A8157
:102DA000AB81BC81F80186879787A08BB18BC80166
:102DB0002696CDBFDEBFDF91CF911F910F91089571
:102DC000CF93DF9300D0CDB7DEB78091B9298111C1
:102DD00002C00E94201280E00E94AA090E944D13A6
:102DE00060E08FE30E94E5090E94890B80E00E9469
:102DF000AA090E944D138FEF89831A82AE014E5F9C
:102E00005F4FBE016F5F7F4F8FE30E948E0A0E946B
:102E1000890B89810F900F90DF91CF9108950F93C7
:102E20001F93CF93DF9300D01F92CDB7DEB78B8374
:102E300019821A8210E000E08091B929811102C044
:102E40000E94201280E00E94AA090E944D1361E0B6
:102E50008AE20E94E50941E061E0CE0103960E940A
:102E60002D0A0E94670A0E94670A0E94890B80E06F
:102E70000E94AA090E944D13AE014E5F5F4FBE0132
:102E80006F5F7F4F8AE20E948E0A0E94890B8981C0
:102E900081111BC00F5F1F4F64E670E080E090E07F
:102EA0000E9439038981811103C00931110520F283
:102EB00081E00931110509F480E02396CDBFDEBF22
:102EC000DF91CF911F910F91089510E000E0EACFBC
:102ED000EF92FF920F931F93CF93DF9300D000D018
:102EE000CDB7DEB78C837B018A018091B92981112E
:102EF00002C00E94201280E00E94AA090E944D1385
:102F000062E084E40E94E50940E061E070E0CE0107
:102F100004960E94FC0941E0B801C7010E94FC0927
:102F2000075F1F4FC80183709927892B29F00E94E2
:102F3000670A0F5F1F4FF6CF0E94890B80E00E9447
:102F4000AA090E944D1319821A821B82AE014D5F9D
:102F50005F4FBE016F5F7F4F84E40E94D80A0E94DA
:102F6000890B89819A812496CDBFDEBFDF91CF91F5
:102F70001F910F91FF90EF9008950F931F93CF93A0
:102F8000DF938C014115510569F481E090E0F8016F
:102F900082839383D0E0C0E0CE01DF91CF911F9177
:102FA0000F910895FC0184810E946817EC01892B20
:102FB00061F3F80184810E940F17882331F3ECCF6D
:102FC000CF92DF92EF92FF920F931F93CF93DF93F5
:102FD000222379F06A017B018C01C5E0D0E0A601D3
:102FE000B701F80184850E946817009721F42197A2
:102FF000B1F790E080E0DF91CF911F910F91FF90AA
:10300000EF90DF90CF900895CF93DF9300D01F9281
:10301000CDB7DEB78B838091B929811102C00E94A0
:10302000201280E00E94AA090E944D1361E08FE205
:103030000E94E50941E061E0CE0103960E942D0A5D
:103040000E94670A0E94670A0E94890B80E00E9422
:10305000AA090E944D1319821A82AE014E5F5F4F7A
:10306000BE016F5F7F4F8FE20E948E0A0E94890B24
:1030700089812396CDBFDEBFDF91CF910895CF9395
:10308000DF93FC0124852F3FB9F0EC010190F08122
:10309000E02D0084F185E02D0995892B21F081E058
:1030A000DF91CF9108958C858F3F41F48C8590E01E
:1030B0000E94990E8FEF8C8780E0F2CF0E94041857
:1030C0008430A0F39BEF980F933080F38A3039F768
:1030D000EDCF0F931F93CF93DF93CDB7DEB76297FA
:1030E000CDBFDEBF8C0180914E2B8F3F09F485C090
:1030F00080914F2B8F3F19F11B821C8248EE53E0C9
:1031000060E070E04D835E836F83788727E533ED61
:1031100029833A838D8781E0888BCE0101960E94B6
:103120003F18882361F0CE0101960E943615892B45
:1031300031F080914F2B90E08F3F9105D9F5809130
:103140004E2B8A8B8CE10E94C9022FEF892B79F1DB
:103150008091B929811102C00E94201280E00E9452
:10316000AA090E944D1361E08BE20E94E50941E04B
:1031700061E0CE0142960E942D0A0E94670A0E94D9
:10318000670A0E94890B80E00E94AA090E944D13E1
:10319000198A19821A82AE014F5E5F4FBE016F5FBE
:1031A0007F4F8BE20E948E0A0E94890B2981822F19
:1031B0002F3F19F180934F2BF8011282138248EEB2
:1031C00053E060E070E04483558366837783108624
:1031D00011861286138627E533ED20833183848799
:1031E0001586168681E08787C8016296CDBFDEBF4F
:1031F000DF91CF911F910F910895F80112821382F0
:1032000088EE93E0A0E0B0E084839583A683B78343
:1032100087E593ED808391838FEF8487E3CFCF930E
:10322000DF9300D01F92CDB7DEB78B838091B92991
:10323000811102C00E94201280E00E94AA090E940F
:103240004D1361E08EE20E94E50941E061E0CE01AC
:1032500003960E942D0A0E94670A0E94670A0E9434
:10326000890B80E00E94AA090E944D1319821A82DC
:10327000AE014E5F5F4FBE016F5F7F4F8EE20E94D7
:103280008E0A0E94890B2396CDBFDEBFDF91CF91BE
:103290000895CF93DF93EC018C858F3F41F00E941E
:1032A0000F198C8590E00E94990E8FEF8C87DF912B
:1032B000CF9108950F931F93CF93DF93EC018C85EB
:1032C0008F3FD9F00E940F1902E310E08C858F3FE9
:1032D00071F00E940418882351F00150110939F04F
:1032E00064E670E080E090E00E943903EFCF8C85C7
:1032F00090E00E94990E8FEF8C87DF91CF911F9104
:103300000F910895EF92FF920F931F93CF93DF9346
:103310008C017B01EA01DC011C968C918F3F79F4D2
:1033200081E090E0F80182839383D0E0C0E0CE0199
:10333000DF91CF911F910F91FF90EF90089520970B
:1033400079F30E946817009731F5D8011F968C9188
:103350001F9781110CC0F80184850E940F1981E02C
:1033600090E0D80112968D939C931397DECFED9148
:10337000FC9102A0F3A1E02D21E0AE01B701C8014C
:103380000995EC01892B39F3F80184850E940F1708
:10339000882331F2CCCFEC01F7CFEF92FF920F935D
:1033A000CF93DF93CDB7DEB72897CDBFDEBF6B835A
:1033B0007C838D839E837A012F8308878091B9292E
:1033C000811102C00E94201280E00E94AA090E947E
:1033D0004D1364E08DE20E94E50940E064E0CE0117
:1033E00003960E942D0AC7010E947D0E40E061E015
:1033F000CE0107960E942D0A41E061E0CE010896B9
:103400000E942D0A0E94890B80E00E94AA090E9456
:103410004D1319821A82AE014E5F5F4FBE016F5F7E
:103420007F4F8DE20E948E0A0E94890B2896CDBFA5
:10343000DEBFDF91CF910F91FF90EF900895EF9253
:10344000FF920F931F93CF93DF93EC018B017A01CF
:103450008C858F3F19F40E94E0168C872C8590E0B4
:1034600080E02F3F79F0F80182899389892B89F4D4
:10347000668577858089918901E0A7010E94CD1931
:1034800081E090E0DF91CF911F910F91FF90EF903D
:10349000089560E070E0CB01EFCF0F931F93CF93BF
:1034A000DF9300D000D0CDB7DEB78C016B834C83A7
:1034B0008091B929811102C00E94201280E00E94EF
:1034C000AA090E944D1363E088E20E94E509C80141
:1034D0000E947D0E40E061E0CE0103960E942D0A1D
:1034E00041E061E0CE0104960E942D0A0E94670A25
:1034F0000E94890B80E00E94AA090E944D13198244
:103500001A82AE014E5F5F4FBE016F5F7F4F88E250
:103510000E948E0A0E94890B2496CDBFDEBFDF91E8
:10352000CF911F910F910895EF92FF921F93CF9328
:10353000DF93EC017B018C858F3F39F0E881F981C5
:103540000288F389E02DCE0109950E94E016182F1C
:1035500080E01F3F59F041E0612FC7010E944D1AE2
:103560001C87ED86FE861F86188A81E0DF91CF9149
:103570001F91FF90EF900895CF93DF93EC010E948D
:10358000E0168C838F3F41F040E0682F8E819F8151
:10359000DF91CF910C944D1ADF91CF9108950F9345
:1035A0001F93CF93DF9300D000D0CDB7DEB78C014F
:1035B000F80127853089C90101978787908B848519
:1035C000232B49F041E050E0BE016F5F7F4F90E058
:1035D0000E945114EDCF8C838CE10E94C902892B8B
:1035E000D9F18091B929811102C00E94201280E096
:1035F0000E94AA090E944D1361E08BE20E94E50936
:1036000041E061E0CE0104960E942D0A0E94670A03
:103610000E94670A0E94890B80E00E94AA090E940A
:103620004D131B8219821A82AE014D5F5F4FBE019E
:103630006F5F7F4F8BE20E948E0A0E94890B898107
:103640009A81F8018787908B2496CDBFDEBFDF91EA
:10365000CF911F910F91089590E080E0F2CFEF920B
:10366000FF920F931F93CF93DF9300D01F92CDB79C
:10367000DEB77B018A01FC0184858B838091B929A7
:10368000811102C00E94201280E00E94AA090E94BB
:103690004D1362E086E40E94E50940E061E070E0DD
:1036A000CE0103960E94FC0941E0B801C7010E94C7
:1036B000FC097801F9E0EF0EF11CC701837099272E
:1036C000892B31F00E94670A8FEFE81AF80AF5CFCC
:1036D0000E94890B80E00E94AA090E944D131A8261
:1036E0001982AE014F5F5F4FBE016E5F7F4F86E470
:1036F0000E94D80A0E94890BC8012396CDBFDEBF65
:10370000DF91CF911F910F91FF90EF900895CF938C
:10371000DF9300D01F92CDB7DEB7FC0184858B8389
:103720008091B929811102C00E94201280E00E947C
:10373000AA090E944D1361E089E30E94E50941E076
:1037400061E0CE0103960E942D0A0E94670A0E9442
:10375000670A0E94890B80E00E94AA090E944D130B
:103760001A821982AE014F5F5F4FBE016E5F7F4FBD
:1037700089E30E94D80A0E94890B8981882321F05D
:1037800081E09A81913009F080E090E02396CDBFEE
:10379000DEBFDF91CF910895AF92BF92CF92DF92BB
:1037A000FF920F931F93CF93DF93CDB7DEB7289788
:1037B000CDBFDEBF8C015B016A01DC011C968C91E0
:1037C0001C978F3F39F0ED91FC910288F389E02D31
:1037D000C80109950E94E016F82EBFEF80E0FB16A5
:1037E00009F456C0F50182899389892B09F05DC0DF
:1037F00086859785A089B18989839A83AB83BC83A9
:10380000F88683E08D838091B929811102C00E94DE
:10381000201280E00E94AA090E944D1364E088E211
:103820000E94E50940E064E0CE0101960E942D0A65
:10383000C6010E947D0E40E061E0CE0108960E9424
:103840002D0A41E061E0CE0105960E942D0A0E94FA
:10385000890B80E00E94AA090E944D131F821E82DC
:10386000AE014A5F5F4FBE01695F7F4F88E20E94F1
:103870008E0A0E94890BD8011C96FC921C971D96FB
:10388000CD92DC921E971F961D921C92509781E05C
:103890002896CDBFDEBFDF91CF911F910F91FF9092
:1038A000DF90CF90BF90AF90089580E090E0DC0172
:1038B000A3CFFB0101900020E9F73197AF01461B30
:1038C000570BDC01ED91FC910280F381E02D09940E
:1038D0008F929F92AF92BF92EF92FF920F931F939E
:1038E000CF93DF93CDB7DEB7A197CDBFDEBF7C010D
:1038F000FA01CB0119A2223008F42AE08E010F5DF3
:103900001F4F822E912CB12CA12CBF01A501940137
:103910000E946441F901CA016A30F4F4605DD80183
:103920006E938D01232B242B252B79F790E080E0DB
:10393000109721F0BD01C7010E94591CA196CDBF6F
:10394000DEBFDF91CF911F910F91FF90EF90BF905D
:10395000AF909F908F900895695CE1CFCF92DF92F6
:10396000EF92FF920F931F93CF93DF9377FF1DC0CA
:103970006A017B01EC016DE20E947D038C0144270A
:103980005527BA014C195D096E097F092AE0CE015D
:103990000E94681C800F911FDF91CF911F910F91A2
:1039A000FF90EF90DF90CF9008952AE0DF91CF91C4
:1039B0001F910F91FF90EF90DF90CF900C94681CB7
:1039C0002F923F924F925F926F927F928F929F922F
:1039D000AF92BF92CF92DF92EF92FF920F931F931D
:1039E000CF93DF9300D01F92CDB7DEB78A839B833E
:1039F0004B01FC0182899389019709F0CEC08F01A8
:103A000044244A9431E090E08FEF20E0428141115C
:103A1000B0C043814111ADC09F5F8F3F11F4822F31
:103A200091E0391714F4392F482E32962F5F283041
:103A300069F71A821B82D12CC12CA42C042C000CF7
:103A4000BB083501630E711C37FD7A94CA14DB0480
:103A500024F0C614D7040CF490C0F8018281682FBA
:103A600070E094E0759567959A95E1F7362E8F7022
:103A7000582E8381E82EF12C24E0F594E7942A95C2
:103A8000E1F72E2C8F708983662309F4B7C0F9E023
:103A9000F61708F470C0605DC4010E947D032A819E
:103AA0003B81280F391F2A833B8339E060E33515BA
:103AB00008F467E5650DC4010E947D03EA81FB817E
:103AC000E80FF91FEA83FB83311004C0511002C0D4
:103AD000222079F0F9E060E3F21508F467E56E0D55
:103AE000C4010E947D032A813B81280F391F2A834C
:103AF0003B833981632F605D3A3010F06981695AE8
:103B0000C4010E947D03EA81FB81E80FF91FEA836B
:103B1000FB83F7E0CF16D10451F06AE3C4010E94A1
:103B20007D032A813B81280F391F2A833B833FEF86
:103B3000C31AD30A0E5F1F4F88E0C816D10409F0DC
:103B400085CF8A819B812396CDBFDEBFDF91CF9148
:103B50001F910F91FF90EF90DF90CF90BF90AF90AB
:103B60009F908F907F906F905F904F903F902F909D
:103B700008958FEF5ACF695A8FCFAC14BD04B9F6B0
:103B80004110CBCF6AE3C4010E947D03EA81FB812F
:103B9000E80FF91FEA83FB83C0CFEA80FB80EEE0E9
:103BA000EE0EF11CAA80BB80F1E1AF0EB11C10E05B
:103BB00000E0F70141917F0150E070E060E02AE011
:103BC000C4010E94681C6C016EE2C4010E947D0366
:103BD0008C0D9D1D080F191FAE14BF0451F7EA810B
:103BE000FB81418950E070E060E02AE0C4010E945E
:103BF000681C800F911F8A839B83A3CF511055CFE0
:103C000067CF8F929F92AF92BF92CF92DF92EF9247
:103C1000FF920F931F93CF93DF93EC016A017B0117
:103C2000AB019601CB01B6010E94624363EC73EDD8
:103C3000811126C046015701E894B7F82FEF3FEFF6
:103C40004FE75FE7C501B4010E94624381110CC0D8
:103C50002FEF3FEF4FE75FE7C501B4010E944040FF
:103C600067EC73ED181664F02FEF3FEF4FE75FE45A
:103C7000C701B6010E940D4318168CF46BEC73ED6E
:103C8000CE01DF91CF911F910F91FF90EF90DF90C8
:103C9000CF90BF90AF909F908F900C94591C2FEFB6
:103CA0003FEF4FE75FECC701B6010E94404087FD40
:103CB000E5CF20E030E0A901C701B6010E944040F5
:103CC00010E000E087FF09C06DE2CE010E947D0395
:103CD0008C01F7FAF094F7F8F0942AE037ED43EA14
:103CE0005BE3C701B6010E94F9416B017C010E94B0
:103CF000DE424B015C010E9445409B01AC01C701C3
:103D0000B6010E94F8416B017C012AE0B501A401D3
:103D1000CE010E94681C080F191F60E777EDCE01E5
:103D20000E94591C080F191F20E030E040E251E4C6
:103D3000C701B6010E94A6404B015C010E94DE4211
:103D40006B01F12CE12C2AE0B701A601CE010E9403
:103D5000681C080F191FC701B6010E9445409B014E
:103D6000AC01C501B4010E94F84120E030E040E21E
:103D700051E40E94A6400E94DE42AB0170E060E088
:103D80002AE0CE010E94681C800F911FDF91CF9125
:103D90001F910F91FF90EF90DF90CF90BF90AF9069
:103DA0009F908F9008956EE478ED0C94591CCF93FA
:103DB000DF9362EE79E20E94E01CEC0182EE99E270
:103DC0000E94D31E8C0F9D1FDF91CF9108950F93FA
:103DD0001F93CF93DF938C01D0E0C0E06115710594
:103DE00019F00E94591CEC01C8010E94D31E8C0FCF
:103DF0009D1FDF91CF911F910F910895CF92DF9278
:103E0000EF92FF920F931F93CF93DF9300D000D0D8
:103E1000CDB7DEB76FEC73ED82EE99E20E94E71E3C
:103E20000E9469030091252B1091262B2091272BAE
:103E30003091282B1016110612061306F4F4009187
:103E4000212B1091222B2091232B3091242B011513
:103E500011052105310589F0AB01BC01401B510B57
:103E6000620B730B80911F2B9091202BB0E0A0E090
:103E7000481759076A077B07E8F1809114288111D8
:103E800015C08091192B90911A2BDC01ED91FC91BA
:103E90000684F785E02D6BE770E0099590E080934C
:103EA00012289093132881E08093142883EE90E0E9
:103EB000A6E0BCEE89839A83AB83BC8380911228F1
:103EC00090911328892B09F043C080E090E0DC0139
:103ED0008093252B9093262BA093272BB093282BF0
:103EE0000E9469036093212B7093222B8093232BD4
:103EF0009093242BC090252BD090262BE090272B3D
:103F0000F090282B0E9469030091212B1091222B05
:103F10002091232B3091242B601B710B820B930B70
:103F200028EE33E040E050E00E946441CA01B9014C
:103F30006C0D7D1D8E1D9F1D2496CDBFDEBFDF91B4
:103F4000CF911F910F91FF90EF90DF90CF90089548
:103F50008091192B90911A2BDC01ED91FC91068038
:103F6000F781E02D09958091192B90911A2B609182
:103F70001B2B70911C2BDC01ED91FC910688F789BD
:103F8000E02D4BE750E00995892B09F49ECF8091F5
:103F9000192B90911A2BDC01ED91FC910280F38199
:103FA000E02D40E350E0BE016F5F7F4F0995C09761
:103FB00009F08BCF8091192B90911A2BDC01ED9198
:103FC000FC91008CF18DE02D0995892B09F47DCFB2
:103FD0001FE08091192B90911A2BDC01ED91FC913F
:103FE000028CF38DE02D0995C09749F066E970E0E9
:103FF00080E090E00E943903115059F766CF18E233
:104000008091192B90911A2BDC01ED91FC91028487
:10401000F385E02D0995115099F78091192B909116
:104020001A2BDC01ED91FC910284F385E02D0995BA
:104030006C01990FEE08FF0813E0FE2CED2CDC2C30
:10404000CC248091192B90911A2BDC01ED91FC91DD
:104050000284F385E02D0995092E000CAA0BBB0BF9
:10406000C82AD92AEA2AFB2A115039F78091192B3C
:1040700090911A2BDC01ED91FC910284F385E02DE7
:1040800009958C018091192B90911A2BDC01ED91EF
:10409000FC910680F781E02D099580911D2B909170
:1040A0001E2B092E000CAA0BBB0B80589E47AA4A58
:1040B000B3488C0D9D1DAE1DBF1D41E050E060E07A
:1040C00070E0023611051CF440E050E0BA01840FA4
:1040D000951FA61FB71FFCCEAF92BF92CF92DF9263
:1040E000EF92FF920F93CF93DF93EC017B015A0184
:1040F0008C858F3F39F0E881F9810488F589E02DBE
:10410000CE0109950E94E016482F8C878F3F09F455
:1041100047C0F7012289338960E070E0CB01232B8F
:1041200021F4668577858089918904E0242FA50193
:104130000E94CD190E9469036B017C01E881F9811D
:104140000688F789E02DCE010995811112C00E94E1
:1041500069036C197D098E099F09603177428105D9
:10416000910538F461E070E080E090E00E9439034E
:10417000E5CFE881F9810688F789E02DCE01099520
:1041800021E090E0811101C020E0822FDF91CF91EA
:104190000F91FF90EF90DF90CF90BF90AF90089578
:1041A0006DEE73ED82EE99E20E94E71E80E090E0F2
:1041B000EDCFAF92BF92CF92DF92EF92FF920F932B
:1041C000CF93DF93EC017B015A018C858F3F39F04F
:1041D000E881F9810488F589E02DCE0109950E94D6
:1041E000E016482F8C878F3F09F447C0F7012289DA
:1041F000338960E070E0CB01232B21F4668577855D
:104200008089918902E0242FA5010E94CD190E9486
:1042100069036B017C01E881F9810688F789E02D4B
:10422000CE010995811112C00E9469036C197D09A4
:104230008E099F09603177428105910538F461E06C
:1042400070E080E090E00E943903E5CFE881F981D9
:104250000688F789E02DCE01099521E090E08111D3
:1042600001C020E0822FDF91CF910F91FF90EF905E
:10427000DF90CF90BF90AF9008956DEE73ED82EE1A
:1042800099E20E94E71E80E090E0EDCFAF92BF92EE
:10429000CF92DF92EF92FF920F93CF93DF93EC01D7
:1042A0007B015A018C858F3F39F0E881F9810488C0
:1042B000F589E02DCE0109950E94E016482F8C87E4
:1042C0008F3F09F447C0F7012289338960E070E02D
:1042D000CB01232B21F4668577858089918900E0C5
:1042E000242FA5010E94CD190E9469036B017C0156
:1042F000E881F9810688F789E02DCE0109958111C1
:1043000012C00E9469036C197D098E099F096031F2
:1043100077428105910538F461E070E080E090E03B
:104320000E943903E5CFE881F9810688F789E02DFD
:10433000CE01099521E090E0811101C020E0822F9B
:10434000DF91CF910F91FF90EF90DF90CF90BF90D2
:10435000AF9008956DEE73ED82EE99E20E94E71E34
:1043600080E090E0EDCF6115710511F00C94591CBF
:1043700090E080E00895CF92DF92EF92FF920F934A
:104380001F93CF93DF93CDB7DEB72597CDBFDEBFA9
:104390000E94CB0C0E94770D8CE8C82E89E2D82EA3
:1043A000F60182811F928F9391E0E92E94EDF92E10
:1043B000FF92EF928E010F5F1F4F1F930F930E948A
:1043C0004246B80182EE99E20E94B3210E94CB0CD2
:1043D0000E94770DF60181811F928F93FF92EF92D9
:1043E0001F930F930E944246B80182EE99E20E9409
:1043F000B3210E94CB0C0E94770DF60180811F92A1
:104400008F9387E094ED9F938F931F930F930E9458
:104410004246B80182EE99E20E94B321CDBFDEBFD1
:104420002596CDBFDEBFDF91CF911F910F91FF90F9
:10443000EF90DF90CF900895EF92FF920F931F932C
:10444000CF93DF9300D0CDB7DEB77C018091B9293F
:10445000811102C00E94201280E00E94AA090E94DD
:104460004D1361E084E30E94E509F701019000200B
:10447000E9F73197BF016E197F0941E0C7010E943A
:104480002D0AF70101900020E9F78F010E191F098D
:104490000C5F1F4FC80183709927892B29F00E9458
:1044A000670A0F5F1F4FF6CF0E94890B80E00E94C2
:1044B000AA090E944D1319821A82AE014E5F5F4F06
:1044C000BE016F5F7F4F84E30E948E0A182F0E9407
:1044D000890B112329F011E08981813009F010E066
:1044E000812F0F900F90DF91CF911F910F91FF902F
:1044F000EF900895CF92DF92EF92FF920F93CF93B8
:10450000DF93EC017B016A018C858F3F39F0E881F4
:10451000F9810488F589E02DCE0109950E94E01605
:104520008C878F3F09F442C0F70101900020E9F722
:104530003197BF016E197F0904E0282FA601C7013A
:104540000E9440150E9469036B017C01E881F9819A
:104550000688F789E02DCE010995811112C00E94CD
:1045600069036C197D098E099F09603177428105C5
:10457000910538F461E070E080E090E00E9439033A
:10458000E5CFE881F9810688F789E02DCE0109950C
:1045900021E090E0811101C020E0822FDF91CF91D6
:1045A0000F91FF90EF90DF90CF9008956DEE73ED37
:1045B00082EE99E20E94E71E80E090E0EFCFCF927A
:1045C000DF92EF92FF920F93CF93DF93EC017B0189
:1045D0006A018C858F3F39F0E881F9810488F5897B
:1045E000E02DCE0109950E94E0168C878F3F09F4DB
:1045F00042C0F70101900020E9F73197BF016E1921
:104600007F0902E0282FA601C7010E9440150E94E1
:1046100069036B017C01E881F9810688F789E02D47
:10462000CE010995811112C00E9469036C197D09A0
:104630008E099F09603177428105910538F461E068
:1046400070E080E090E00E943903E5CFE881F981D5
:104650000688F789E02DCE01099521E090E08111CF
:1046600001C020E0822FDF91CF910F91FF90EF905A
:10467000DF90CF9008956DEE73ED82EE99E20E9487
:10468000E71E80E090E0EFCFFC0124813581FB0143
:104690004481558124173507A0F0FC018081918168
:1046A000009779F0FB01608171816115710549F016
:1046B000241B350B820F931F0E94024621E0892B99
:1046C00009F020E0822F08950F931F93CF93DF937B
:1046D000EC0188819981009759F02A813B81261746
:1046E000370730F081E0DF91CF911F910F9108954E
:1046F0008B016F5F7F4F0E942A45009759F0888396
:1047000099830A831B832C813D81232B59F7FC015C
:104710001082E8CF80E0E7CFAF92BF92DF92EF92B6
:10472000FF920F931F93CF93DF936115710561F48F
:10473000D12C8D2DDF91CF911F910F91FF90EF9094
:10474000DF90BF90AF900895DD24D39441155105BB
:1047500081F37A015B01EC010C811D81040F151FAF
:10476000B8010E946423D82E882311F3288139814F
:104770008C819D81A701B501820F931F0E94F9458D
:104780000C831D8388819981080F191FF8011082FD
:10479000D0CFEF92FF920F931F93CF93DF93EC0153
:1047A0007B018A01BA010E94642381110BC0CE01F2
:1047B0000E94B20ECE01DF91CF911F910F91FF9019
:1047C000EF9008950C831D83A801B701888199811A
:1047D0000E94F945E881F9818C819D81E80FF91FDC
:1047E0001082E8CFFB0101900020E9F73197AF017B
:1047F000461B570B0C94C923EF92FF920F931F9304
:10480000CF93DF93CDB7DEB7E397CDBFDEBF7C019B
:10481000CB01BA01F7011082118212821382148235
:1048200015828E010F5F1F4F22E044E00E947A3D07
:10483000009771F0BC01C7010E94F223E396CDBF3F
:10484000DEBFDF91CF911F910F91FF90EF90089500
:10485000C7010E94B20EF2CFCF93DF93D0E0C0E049
:1048600060E578EDCE018B52944D0E94F22326969E
:10487000C033D105A9F780E090E0A0ECBFE78093BA
:10488000052C9093062CA093072CB093082C8093B2
:10489000092C90930A2CA0930B2CB0930C2C809392
:1048A0000D2C90930E2CA0930F2CB093102C60E540
:1048B00078ED83E19CE20E94F22360E578ED89E1E6
:1048C0009CE20E94F22360E578ED8FE19CE20E9479
:1048D000F22360E578ED85E29CE2DF91CF910C94C4
:1048E000F2238091D12B9091D22BDC01ED91FC91A0
:1048F0000084F185E02D0995A091D12BB091D22BA8
:10490000ED91FC9111971816190634F40284F38581
:10491000E02DCD010995E5CF0488F589E02DCD0185
:1049200009950E942C2482ED9EEF0895CF93DF938A
:10493000EC01FB018617970749F0608171816115D1
:10494000710541F0448155810E94C923CE01DF9158
:10495000CF9108950E94B20EF9CFFC01108211820E
:1049600012821382148215826115710551F0FB01C8
:1049700001900020E9F73197AF01461B570B0C94CB
:10498000C92308952F923F924F925F926F927F9228
:104990008F929F92AF92BF92CF92DF92EF92FF924F
:1049A0000F931F93CF93DF93CDB7DEB76397CDBF40
:1049B000DEBF7C010E94130C892B61F4C7010E94A9
:1049C0001E0C811107C0D701D2961D921C92D3975D
:1049D0009F961C92F701E05BFF4FEE83FF83670118
:1049E000FEE4CF0ED11CC701875B9F4F8887998754
:1049F00057019BE4A90EB11C4701A4E48A0E911C47
:104A0000F701EE5BFF4FEA87FB872701F7E44F0EC4
:104A1000511C17018DE5280E311CD701A35BBF4F38
:104A2000AC87BD87F701ED59FF4FEE87FF87C701C0
:104A3000845B9F4F888B998B1797AA8BBB8BC70181
:104A40000E94130C892B09F4EEC0F701848595852B
:104A5000DC01ED91FC910284F385E02D09958C0138
:104A60000E946903EE81FF81608371838283938357
:104A7000D701D296ED91FC91D397E830F10508F07B
:104A8000CCC0EB5BFA4D0C94C4434D2566254626FD
:104A9000B62606273F2780278027C801F4E0959592
:104AA0008795FA95E1F78F709927F70184AB0F701E
:104AB00005AB16AA17AA81E090E0A0E0B0E080AFB5
:104AC00091AFA2AFB3AF82AB93ABA7C0D8964D91D5
:104AD0005D916D917C91DB97C8018F779927849FB9
:104AE0009001859F300D949F300D1124D6968D91A5
:104AF0009C91D797280F391FD6962D933C93D79723
:104B0000E7E0440F551F661F771FEA95D1F7F701BD
:104B100040AF51AF62AF73AF413051056042710594
:104B2000E8F0ED91FC910488F589E02DC701099525
:104B30006396CDBFDEBFDF91CF911F910F91FF90A4
:104B4000EF90DF90CF90BF90AF909F908F907F902D
:104B50006F905F904F903F902F90089507FD6FCF1B
:104B6000F70184A9823041F09CEF980F923020F039
:104B7000873011F08B3059F4D701D5969C91911163
:104B800004C02230310509F4E4C1D701CACF833013
:104B900009F585A986708630C1F3F70185A9982F9C
:104BA000991F9927991FAA89BB899C93282F30E0C8
:104BB000359527952370F2012083F701E85BFF4FBD
:104BC0008170808383E090E0D701D2968D939C938F
:104BD000D39720C0863051F4D5968C918230A9F6B7
:104BE0002230310591F682E090E0EECF893039F441
:104BF00085A98111CACF23303105A9F3C6CF8D30E5
:104C000021F6D5968C918111C0CF232B09F0BDCF11
:104C100012AA13AAF60110821182F70182A993A9A0
:104C2000069709F00CCFD7019F968C91882309F441
:104C30007FCF0E946903F70103A114A125A136A12A
:104C4000E859FF4F80809180A280B3802B013C0106
:104C5000481859086A087B085301420180169106DA
:104C6000A206B30608F45FC16083718382839383D5
:104C70008E010F5F1F4F30E020E040E06CE0C70185
:104C80000E946A0FC7010E94290C52CFD6018D9154
:104C90009C9111979C012F5F3F4F2D933C938E0D5C
:104CA0009F1DFC01E55BFF4F0083F70186A997A9D3
:104CB0002817390709F0C3CE12AA13AA84A9823093
:104CC00039F4A889B9898C9190E084AF95AFA5CFCC
:104CD0009CEF980F923020F0873011F08B3089F4E0
:104CE000F50180819181982789279827D1012D91FD
:104CF0003C912817390709F0A2CEF70114AE15AE82
:104D00008CCF8630E9F4D5016D907C9076246724B1
:104D10007624EE85FF858081811191CE8E010F5F13
:104D20001F4F22E030E040E067E0C7010E946A0FB9
:104D3000B301C7010E94350FC7010E94290C6DCF36
:104D4000893009F07CCED5018D919C9198278927D7
:104D50009827F101208131812817390709F06FCE9A
:104D6000AC85BD858C9190E0F701AFCFD6018D91D8
:104D70009C9111979C012F5F3F4F2D933C938E0D7B
:104D80009F1DFC01E55BFF4F00832230310509F0D8
:104D900056CEF50180819181982789279827D401E3
:104DA0008D939C93F70186A997A9029786AB97AB41
:104DB00060E578ED8701025C1F4FC8010E94F22375
:104DC000D4016D917C91C8010E946423F20140815D
:104DD000D701D6962D913C91D797F401808191818E
:104DE000442381F002962817390708F49ACEF60179
:104DF0001082118284E090E0D701D2968D939C932B
:104E0000D3970BCF2817390790F7BFCE0D8341E01A
:104E100050E0BE016B5F7F4FC701CE960E948C238E
:104E2000F40120813181AA85BB858D919C91281741
:104E3000390709F0F2CEF70186A997A9821B930BD7
:104E400086AB97ABD2012C91222319F085E090E03C
:104E50003ACE26E030E022AB33AB0684F785E02D76
:104E6000309709F4E0CE0995D701D6968D919C91A3
:104E7000892B09F0D2CEF70112AA13AACECED60101
:104E80008D919C9111979C012F5F3F4F2D933C93E7
:104E90008E0D9F1DFC01E55BFF4F00832230310525
:104EA00009F0CDCDF70186A997A9029786AB97ABFC
:104EB000D5012D913C91322723273227E885F985AA
:104EC0002083318326E030E0D701D2962D933C93A6
:104ED000D3971E96ED91FC91309709F00995F70153
:104EE00086A997A9892B09F098CEC7010E942B109B
:104EF000D7011E968D919C91892B09F0BCCF8DCE48
:104F0000F70186A997A9009719F0019786AB97AB8F
:104F1000D701D6968D919C91D797892B09F4ABCF69
:104F200087E090E06ACFF701E05BFF4F80809180DF
:104F3000A280B380681979098A099B09000F111FA3
:104F4000221F331F601771078207930708F4F0CD03
:104F50001CCE833009F421CE46CE2F923F924F9241
:104F60005F926F927F928F929F92AF92BF92CF92F9
:104F7000DF92EF92FF920F931F93CF93DF93CDB702
:104F8000DEB76C97CDBFDEBF7C016B015A01890192
:104F90002DB73EB72B8F3C8F0E941E0C882359F0F3
:104FA000D7011C968D919C91DC01ED91FC910488B8
:104FB000F589E02D0995F70112AA13AA17A6E35A5D
:104FC000FF4F10821182D7011C968D919C91DC01BC
:104FD000ED91FC91A114B10451F10088F189E02D0B
:104FE000A801B5010995892BE9F58EEF9FEFF7012F
:104FF00085A796A710E000E0C801EB8DFC8DEDBF02
:10500000FEBF6C96CDBFDEBFDF91CF911F910F9198
:10501000FF90EF90DF90CF90BF90AF909F908F90D8
:105020007F906F905F904F903F902F9008952685CE
:1050300037854FEC52ED49835A8340E1F6013296B1
:10504000DE01139601900D924A95E1F7D601529632
:105050004D915C914B8B5C8BA801BE016F5F7F4FC4
:10506000F901C0CF0E946903F701E05BFF4F608345
:105070007183828393831D8A1E8A1F8A188E198EDC
:105080001A8EB701605F7F4FCE0145960E9496242D
:10509000698C7A8CD7015A968D909C905B979096EC
:1050A000AD90BC90FE0131962F0161147104F9F4AA
:1050B0000E9469039F938F937F936F938DE094ED8C
:1050C0009F938F931F9281E18F935F924F920E94E3
:1050D0001246B201CE0145960E94F2232DB73EB78B
:1050E000265F3F4F2DBF3EBF70E1672E712C170129
:1050F0003EE6230E311CD101CD90DC90BCE0CB0EFE
:10510000D11CC60CD71C80E08114910429F0C40185
:105110000296C80ED91E80E8A114B10431F0806453
:1051200095012E5F3F4FC20ED31EF701EE58FF4F81
:105130009081892BF70192A19111826020E034E0E7
:1051400029833A8340911BD450911CD460911DD483
:1051500070911ED44B835C836D837E8394E09F8328
:105160008887D70193966D917D918D919C919697AB
:1051700028EE33E040E050E00E946441922F8827FF
:10518000232F342F452F5527282B392B29873A8752
:10519000C6010596EDB7FEB7E81BF90BEDBFFEBFE4
:1051A0000DB71EB70F5F1F4F960140E061E0C701CA
:1051B0000E946A0F4AE050E0B201C7010E94160F38
:1051C0006D897E89A301C7010E944B0FD1014D91CA
:1051D0005C914115510541F0F701E459FF4F6081A1
:1051E0007181C7010E94160F8114910439F0F701F3
:1051F00066897789A401C7010E944B0FA114B104ED
:1052000041F0D7015C966D917C91A501C7010E9488
:105210004B0FC7010E94290C8C01892BA1F4F701C7
:1052200084859585DC01ED91FC910488F589E02D5C
:10523000099583E090E0F70185A796A7CE014596F2
:105240000E94C40ED9CE8FEF9FEFD701DC968D93CD
:105250009C93DD970E9469034B015C010E946903E6
:10526000681979098A099B09F70107A110A521A5E9
:1052700032A5601771078207930770F4C7010E9477
:105280001E0C882349F0C7010E94C224D701DC9676
:105290008D919C91019611F3F70184AD95AD85A791
:1052A00096A7892B29F481E087A701E010E0C6CFFB
:1052B00084859585DC01ED91FC910488F589E02DCC
:1052C000099510E000E0BACFCF93DF93CDB7DEB7FA
:1052D0006497CDBFDEBF9A014FEC52ED49835A83EC
:1052E0001B8A1C8AFE0133964CE0DF011D924A9511
:1052F000E9F71F86188A198A1A8AAB01BE016F5F07
:105300007F4F0E94AD276496CDBFDEBFDF91CF9166
:105310000895CF93DF93CDB7DEB76497CDBFDEBFDF
:105320002FEC32ED29833A8330E1FB013296DE0126
:10533000139601900D923A95E1F7FB01228933898A
:105340002B8B3C8B9A0150E040E0BE016F5F7F4F9A
:105350000E94AD276496CDBFDEBFDF91CF91089547
:105360000E94E745CF92DF92EF92FF920F931F9337
:10537000CF93DF93CDB7DEB76997CDBFDEBF7C019A
:105380008FEC92ED89839A831B8A1C8A6E0183E0DD
:10539000C80ED11C8CE0F60111928A95E9F78FEFC7
:1053A0008F87888B898B8A8B8091B929811102C064
:1053B0000E94201280E00E94AA090E944D1360E022
:1053C00085E30E94E5090E94890B80E00E94AA09FA
:1053D0000E944D13198EAE01475E5F4FBE016B5E9A
:1053E0007F4F85E30E948E0A8C01892B21F1F70102
:1053F000128A138AB7016E5F7F4F80E1FB01119221
:105400008A95E9F78D899E89AF89B88DF7018687DE
:105410009787A08BB18B8B899C89892B41F440E1C4
:1054200050E0C6010E94EC4501E0892B09F000E044
:1054300081E0082710E00E94890BC8016996CDBF62
:10544000DEBFDF91CF911F910F91FF90EF90DF9022
:10545000CF900895CF92DF92EF92FF920F931F9318
:10546000CF93DF93CDB7DEB7A897CDBFDEBF8C015A
:105470006B017A01CE0145960E948B0EC6010E94F7
:105480001C2281110EC090E080E0A896CDBFDEBF47
:10549000DF91CF911F910F91FF90EF90DF90CF9010
:1054A0000895CE0145960E94B229892B61F3D80157
:1054B000ED91FC91268537858FEC92ED89839A8357
:1054C00080E1FE017796DE01139601900D928A9598
:1054D000E1F78FA198A58B8B9C8BA701BE016F5F15
:1054E0007F4FC801F9010995D0CFCF92DF92EF929B
:1054F000FF920F931F93CF93DF93CDB7DEB7A8979B
:10550000CDBFDEBF8C016B017A01CE0145960E94B2
:105510008B0EC6010E941C2281110EC090E080E01B
:10552000A896CDBFDEBFDF91CF911F910F91FF9065
:10553000EF90DF90CF900895CE0145960E94B2295A
:10554000892B61F3D801ED91FC91248935898FEC89
:1055500092ED89839A8380E1FE017796DE011396AE
:1055600001900D928A95E1F78FA198A58B8B9C8B6A
:10557000A701BE016F5F7F4FC801F9010995D0CF28
:105580001F920F920FB60F9211242F933F934F93B8
:105590005F936F937F938F939F93AF93BF9340914C
:1055A000AD295091AE296091AF297091B0298091B9
:1055B000AB299091AC292091A9293091AA29420FB9
:1055C000531F611D711D2091A7293091A829820FB9
:1055D000931F883E23E0920730F0885E93404F5F30
:1055E0005F4F6F4F7F4F8093AB299093AC294093CF
:1055F000AD295093AE296093AF297093B029809163
:10560000B5299091B629A091B729B091B8290196F2
:10561000A11DB11D8093B5299093B629A093B729F8
:10562000B093B82981E08093B60ABF91AF919F9162
:105630008F917F916F915F914F913F912F910F903B
:105640000FBE0F901F9018951F920F920FB60F92DA
:1056500011242F933F934F935F936F937F938F9377
:105660009F93AF93BF93EF93FF9382EE99E20E94D3
:105670008D04FF91EF91BF91AF919F918F917F9199
:105680006F915F914F913F912F910F900FBE0F90AF
:105690001F9018951F920F920FB60F9211242F93FF
:1056A0003F934F935F936F937F938F939F93AF93AA
:1056B000BF93EF93FF93E091EE29F091EF29818161
:1056C00081FD2FC060818091F4298F5F8F7390914D
:1056D000F529891741F0E091F429F0E0EE51F64DFB
:1056E000618F8093F42980917B2A90917C2A009786
:1056F00039F0DC01ED91FC910190F081E02D0995EC
:10570000FF91EF91BF91AF919F918F917F916F9199
:105710005F914F913F912F910F900FBE0F901F906F
:1057200018958081EDCF1F920F920FB60F92112422
:105730002F933F934F935F936F937F938F939F9399
:10574000AF93BF93CF93EF93FF93C091AB08C2FF8A
:105750000AC010923F2910923E2910923D2984E000
:105760000E944E0714C0C6FF2FC080913C29813093
:1057700051F480913F29E0913A29F0913B2990E042
:10578000099510923C29C0FF14C00E945E07FF914A
:10579000EF91CF91BF91AF919F918F917F916F9139
:1057A0005F914F913F912F910F900FBE0F901F90DF
:1057B000189580E48093AB0881E00E944E078091A9
:1057C000AB0885FFE4CFE1CFC7FF5CC0C3FF08C0D3
:1057D00010923F2910923E2910923D2983E0C0CFBC
:1057E0008091A90880668093A9088091AB0881FF09
:1057F0002CC080913E29882349F08091AB0884FF1A
:1058000005C082E08093AA0881E0AACF90913E294A
:1058100080913D299817A8F4E0913E29809135297F
:1058200090913629E80FF92FF11D80818093AD0802
:1058300080913E298F5F80933E2983E08093AA0860
:10584000A6CF82E08093AA088BCF90913F298091C8
:105850003929981790F48091AD08E0913F29209163
:10586000372930913829E20FF32FF11D8083809181
:105870003F298F5F80933F29E0CF86E08093AA087D
:1058800082E06ECF85E06CCF1F920F920FB60F9221
:1058900011242F933F938F939F93EF93FF938091C6
:1058A000A508982F9C70E1F08091A50894E082FFF4
:1058B00093E090934A298093A50881E090E080933B
:1058C00040299093412910924B29FF91EF919F918C
:1058D0008F913F912F910F900FBE0F901F901895B1
:1058E00086FF4EC020914729909146298091A508B6
:1058F00084FF15C080914329882379F083E0809349
:10590000A40885E080934A2910924B2981E090E019
:105910008093402990934129D8CF81E0F0CF8091A6
:105920004529821790F4E09145298091482990916A
:105930004929E80FF92FF11D80818093A8088091F3
:1059400045298F5F80934529C0CF809144298917CD
:1059500060F484E090E08093402990934129809105
:10596000422981608093A708B0CF80914329882382
:1059700029F083E08093A40881E0C4CF81E0FACFCE
:1059800087FF40C090914429809146299817D8F408
:105990008091A808E091442920913329309134293D
:1059A000E20FF32FF11D8083809144298F5F809354
:1059B000442990914629809144298917D8F482E09E
:1059C0008093A40882CF80914329882389F087E0BF
:1059D0008093A40882E080934A2910924B2981E0A9
:1059E00090E08093402990934129109246296DCFF1
:1059F00085E0EECF80914329882311F087E0BACF6C
:105A000085E0B8CF86E07ECF0F931F93CF93DF93CF
:105A1000EC010E946903688779878A879B87E88100
:105A2000F9810484F585E02DCE01099597FF15C015
:105A30000E946903088519852A853B85601B710BC7
:105A4000820B930B0C811D812E813F8160177107A2
:105A50008207930720F38FEF9FEFDF91CF911F9184
:105A60000F910895BF92CF92DF92EF92FF920F9322
:105A70001F93CF93DF938C01C8010E94042DEC018A
:105A800097FD5BC0D801ED91FC910284F385E02D78
:105A90008D32910521F0C0970A9708F048C0C12CBB
:105AA000D12C7601B12CC130D9F0CD32D10509F419
:105AB00041C0CE01C0970A9798F4AAE0B0E0A701D0
:105AC00096010E94A5416E01DD0FEE08FF08C60E8B
:105AD000D71EE81EF91E80E3C81AD108E108F108B4
:105AE000D801ED91FC910284F385E02DC801099560
:105AF000C8010E94042DEC01C0970A97A0F2C130A2
:105B000091F2BB2041F0F094E094D094C094C11C79
:105B1000D11CE11CF11CC701B601DF91CF911F918F
:105B20000F91FF90EF90DF90CF90BF900895C80144
:105B30000995A2CFBB24B394D3CFC12CD12C76012D
:105B4000EACF6F927F928F929F92AF92BF92CF9245
:105B5000DF92EF92FF920F931F93CF93DF93FB019E
:105B600001900020E9F731977F01E61AF70A09F062
:105B700041C030E020E081E0232B09F080E0DF919C
:105B8000CF911F910F91FF90EF90DF90CF90BF903A
:105B9000AF909F908F907F906F900895C1E0D0E07C
:105BA0000E946903D80118966D937D938D939C9301
:105BB0001B97D801ED91FC910284F385E02DC8017B
